{
  "_format": "hh-sol-artifact-1",
  "contractName": "Lock",
  "sourceName": "contracts/Lock.sol",
  "abi": [
    {
      "inputs": [
        {
          "internalType": "uint256",
          "name": "_unlockTime",
          "type": "uint256"
        }
      ],
      "stateMutability": "payable",
      "type": "constructor"
    },
    {
      "anonymous": false,
      "inputs": [
        {
          "indexed": false,
          "internalType": "uint256",
          "name": "amount",
          "type": "uint256"
        },
        {
          "indexed": false,
          "internalType": "uint256",
          "name": "when",
          "type": "uint256"
        }
      ],
      "name": "Withdrawal",
      "type": "event"
    },
    {
      "inputs": [
        {
          "internalType": "address payable",
          "name": "user",
          "type": "address"
        }
      ],
      "name": "Claim",
      "outputs": [],
      "stateMutability": "nonpayable",
      "type": "function"
    },
    {
      "inputs": [
        {
          "internalType": "address",
          "name": "user",
          "type": "address"
        }
      ],
      "name": "addWhitelist",
      "outputs": [],
      "stateMutability": "nonpayable",
      "type": "function"
    },
    {
      "inputs": [
        {
          "internalType": "address",
          "name": "",
          "type": "address"
        }
      ],
      "name": "balanceOf",
      "outputs": [
        {
          "internalType": "uint256",
          "name": "",
          "type": "uint256"
        }
      ],
      "stateMutability": "view",
      "type": "function"
    },
    {
      "inputs": [],
      "name": "buy",
      "outputs": [],
      "stateMutability": "payable",
      "type": "function"
    },
    {
      "inputs": [],
      "name": "buyTokens",
      "outputs": [],
      "stateMutability": "payable",
      "type": "function"
    },
    {
      "inputs": [
        {
          "internalType": "address",
          "name": "",
          "type": "address"
        }
      ],
      "name": "customersQuota",
      "outputs": [
        {
          "internalType": "uint256",
          "name": "",
          "type": "uint256"
        }
      ],
      "stateMutability": "view",
      "type": "function"
    },
    {
      "inputs": [],
      "name": "deadline",
      "outputs": [
        {
          "internalType": "uint256",
          "name": "",
          "type": "uint256"
        }
      ],
      "stateMutability": "view",
      "type": "function"
    },
    {
      "inputs": [],
      "name": "decimals",
      "outputs": [
        {
          "internalType": "uint256",
          "name": "",
          "type": "uint256"
        }
      ],
      "stateMutability": "view",
      "type": "function"
    },
    {
      "inputs": [],
      "name": "getBalance",
      "outputs": [
        {
          "internalType": "uint256",
          "name": "",
          "type": "uint256"
        }
      ],
      "stateMutability": "view",
      "type": "function"
    },
    {
      "inputs": [],
      "name": "name",
      "outputs": [
        {
          "internalType": "string",
          "name": "",
          "type": "string"
        }
      ],
      "stateMutability": "view",
      "type": "function"
    },
    {
      "inputs": [],
      "name": "owner",
      "outputs": [
        {
          "internalType": "address payable",
          "name": "",
          "type": "address"
        }
      ],
      "stateMutability": "view",
      "type": "function"
    },
    {
      "inputs": [],
      "name": "startline",
      "outputs": [
        {
          "internalType": "uint256",
          "name": "",
          "type": "uint256"
        }
      ],
      "stateMutability": "view",
      "type": "function"
    },
    {
      "inputs": [],
      "name": "symbol",
      "outputs": [
        {
          "internalType": "string",
          "name": "",
          "type": "string"
        }
      ],
      "stateMutability": "view",
      "type": "function"
    },
    {
      "inputs": [],
      "name": "tokensTotal",
      "outputs": [
        {
          "internalType": "uint256",
          "name": "",
          "type": "uint256"
        }
      ],
      "stateMutability": "view",
      "type": "function"
    },
    {
      "inputs": [],
      "name": "totalStock",
      "outputs": [
        {
          "internalType": "uint256",
          "name": "",
          "type": "uint256"
        }
      ],
      "stateMutability": "view",
      "type": "function"
    },
    {
      "inputs": [],
      "name": "totalSupply",
      "outputs": [
        {
          "internalType": "uint256",
          "name": "",
          "type": "uint256"
        }
      ],
      "stateMutability": "view",
      "type": "function"
    },
    {
      "inputs": [],
      "name": "unlockTime",
      "outputs": [
        {
          "internalType": "uint256",
          "name": "",
          "type": "uint256"
        }
      ],
      "stateMutability": "view",
      "type": "function"
    },
    {
      "inputs": [
        {
          "internalType": "address",
          "name": "",
          "type": "address"
        }
      ],
      "name": "whitelist",
      "outputs": [
        {
          "internalType": "bool",
          "name": "",
          "type": "bool"
        }
      ],
      "stateMutability": "view",
      "type": "function"
    },
    {
      "inputs": [],
      "name": "withdraw",
      "outputs": [],
      "stateMutability": "nonpayable",
      "type": "function"
    }
  ],
  "bytecode": "0x60806040526364075f806008556364101c4760095560405162001e8f38038062001e8f83398181016040528101906200003991906200039d565b8042106200007e576040517f08c379a0000000000000000000000000000000000000000000000000000000008152600401620000759062000456565b60405180910390fd5b6040518060400160405280600681526020017f56746f6b656e000000000000000000000000000000000000000000000000000081525060029081620000c49190620006e8565b506040518060400160405280600381526020017f5652410000000000000000000000000000000000000000000000000000000000815250600390816200010b9190620006e8565b506012600481905550600454600a62000125919062000952565b612710620001349190620009a3565b600581905550600554600660003373ffffffffffffffffffffffffffffffffffffffff1673ffffffffffffffffffffffffffffffffffffffff168152602001908152602001600020819055508060008190555033600160006101000a81548173ffffffffffffffffffffffffffffffffffffffff021916908373ffffffffffffffffffffffffffffffffffffffff16021790555033600160006101000a81548173ffffffffffffffffffffffffffffffffffffffff021916908373ffffffffffffffffffffffffffffffffffffffff160217905550600160076000735b38da6a701c568545dcfcb03fcb875f56beddc473ffffffffffffffffffffffffffffffffffffffff1673ffffffffffffffffffffffffffffffffffffffff16815260200190815260200160002060006101000a81548160ff02191690831515021790555060016007600073ab8483f64d9c6d1ecf9b849ae677dd3315835cb273ffffffffffffffffffffffffffffffffffffffff1673ffffffffffffffffffffffffffffffffffffffff16815260200190815260200160002060006101000a81548160ff02191690831515021790555060016007600073ca35b7d915458ef540ade6068dfe2f44e8fa733c73ffffffffffffffffffffffffffffffffffffffff1673ffffffffffffffffffffffffffffffffffffffff16815260200190815260200160002060006101000a81548160ff021916908315150217905550612710600a8190555050620009ee565b600080fd5b6000819050919050565b620003778162000362565b81146200038357600080fd5b50565b60008151905062000397816200036c565b92915050565b600060208284031215620003b657620003b56200035d565b5b6000620003c68482850162000386565b91505092915050565b600082825260208201905092915050565b7f556e6c6f636b2074696d652073686f756c6420626520696e207468652066757460008201527f7572650000000000000000000000000000000000000000000000000000000000602082015250565b60006200043e602383620003cf565b91506200044b82620003e0565b604082019050919050565b6000602082019050818103600083015262000471816200042f565b9050919050565b600081519050919050565b7f4e487b7100000000000000000000000000000000000000000000000000000000600052604160045260246000fd5b7f4e487b7100000000000000000000000000000000000000000000000000000000600052602260045260246000fd5b60006002820490506001821680620004fa57607f821691505b60208210810362000510576200050f620004b2565b5b50919050565b60008190508160005260206000209050919050565b60006020601f8301049050919050565b600082821b905092915050565b6000600883026200057a7fffffffffffffffffffffffffffffffffffffffffffffffffffffffffffffffff826200053b565b6200058686836200053b565b95508019841693508086168417925050509392505050565b6000819050919050565b6000620005c9620005c3620005bd8462000362565b6200059e565b62000362565b9050919050565b6000819050919050565b620005e583620005a8565b620005fd620005f482620005d0565b84845462000548565b825550505050565b600090565b6200061462000605565b62000621818484620005da565b505050565b5b8181101562000649576200063d6000826200060a565b60018101905062000627565b5050565b601f8211156200069857620006628162000516565b6200066d846200052b565b810160208510156200067d578190505b620006956200068c856200052b565b83018262000626565b50505b505050565b600082821c905092915050565b6000620006bd600019846008026200069d565b1980831691505092915050565b6000620006d88383620006aa565b9150826002028217905092915050565b620006f38262000478565b67ffffffffffffffff8111156200070f576200070e62000483565b5b6200071b8254620004e1565b620007288282856200064d565b600060209050601f8311600181146200076057600084156200074b578287015190505b620007578582620006ca565b865550620007c7565b601f198416620007708662000516565b60005b828110156200079a5784890151825560018201915060208501945060208101905062000773565b86831015620007ba5784890151620007b6601f891682620006aa565b8355505b6001600288020188555050505b505050505050565b7f4e487b7100000000000000000000000000000000000000000000000000000000600052601160045260246000fd5b60008160011c9050919050565b6000808291508390505b60018511156200085d57808604811115620008355762000834620007cf565b5b6001851615620008455780820291505b80810290506200085585620007fe565b945062000815565b94509492505050565b6000826200087857600190506200094b565b816200088857600090506200094b565b8160018114620008a15760028114620008ac57620008e2565b60019150506200094b565b60ff841115620008c157620008c0620007cf565b5b8360020a915084821115620008db57620008da620007cf565b5b506200094b565b5060208310610133831016604e8410600b84101617156200091c5782820a905083811115620009165762000915620007cf565b5b6200094b565b6200092b84848460016200080b565b92509050818404811115620009455762000944620007cf565b5b81810290505b9392505050565b60006200095f8262000362565b91506200096c8362000362565b92506200099b7fffffffffffffffffffffffffffffffffffffffffffffffffffffffffffffffff848462000866565b905092915050565b6000620009b08262000362565b9150620009bd8362000362565b9250828202620009cd8162000362565b91508282048414831517620009e757620009e6620007cf565b5b5092915050565b61149180620009fe6000396000f3fe6080604052600436106101145760003560e01c80633ccfd60b116100a05780639b19251a116100645780639b19251a14610381578063a6f2ae3a146103be578063b1a951da146103c8578063d0febe4c146103f3578063f80f5dd5146103fd57610114565b80633ccfd60b1461029a57806370a08231146102b15780637ba82f18146102ee5780638da5cb5b1461032b57806395d89b411461035657610114565b80631ffe4cca116100e75780631ffe4cca146101c3578063251c1aa3146101ee57806329dcb0cf14610219578063313ce56714610244578063394610cf1461026f57610114565b806306fdde03146101195780630c7ef9321461014457806312065fe01461016d57806318160ddd14610198575b600080fd5b34801561012557600080fd5b5061012e610426565b60405161013b9190610d4a565b60405180910390f35b34801561015057600080fd5b5061016b60048036038101906101669190610dcf565b6104b4565b005b34801561017957600080fd5b506101826105e9565b60405161018f9190610e15565b60405180910390f35b3480156101a457600080fd5b506101ad6105f1565b6040516101ba9190610e15565b60405180910390f35b3480156101cf57600080fd5b506101d86105f7565b6040516101e59190610e15565b60405180910390f35b3480156101fa57600080fd5b506102036105fd565b6040516102109190610e15565b60405180910390f35b34801561022557600080fd5b5061022e610603565b60405161023b9190610e15565b60405180910390f35b34801561025057600080fd5b50610259610609565b6040516102669190610e15565b60405180910390f35b34801561027b57600080fd5b5061028461060f565b6040516102919190610e15565b60405180910390f35b3480156102a657600080fd5b506102af610615565b005b3480156102bd57600080fd5b506102d860048036038101906102d39190610e6e565b61078e565b6040516102e59190610e15565b60405180910390f35b3480156102fa57600080fd5b5061031560048036038101906103109190610e6e565b6107a6565b6040516103229190610e15565b60405180910390f35b34801561033757600080fd5b506103406107be565b60405161034d9190610eaa565b60405180910390f35b34801561036257600080fd5b5061036b6107e4565b6040516103789190610d4a565b60405180910390f35b34801561038d57600080fd5b506103a860048036038101906103a39190610e6e565b610872565b6040516103b59190610ee0565b60405180910390f35b6103c6610892565b005b3480156103d457600080fd5b506103dd610946565b6040516103ea9190610e15565b60405180910390f35b6103fb61094c565b005b34801561040957600080fd5b50610424600480360381019061041f9190610e6e565b610b3c565b005b6002805461043390610f2a565b80601f016020809104026020016040519081016040528092919081815260200182805461045f90610f2a565b80156104ac5780601f10610481576101008083540402835291602001916104ac565b820191906000526020600020905b81548152906001019060200180831161048f57829003601f168201915b505050505081565b600760003373ffffffffffffffffffffffffffffffffffffffff1673ffffffffffffffffffffffffffffffffffffffff16815260200190815260200160002060009054906101000a900460ff16610540576040517f08c379a000000000000000000000000000000000000000000000000000000000815260040161053790610fcd565b60405180910390fd5b6000612710600c54600b60008573ffffffffffffffffffffffffffffffffffffffff1673ffffffffffffffffffffffffffffffffffffffff16815260200190815260200160002054610592919061104b565b61059c919061107c565b90508173ffffffffffffffffffffffffffffffffffffffff166108fc829081150290604051600060405180830381858888f193505050501580156105e4573d6000803e3d6000fd5b505050565b600047905090565b60055481565b60085481565b60005481565b60095481565b60045481565b600a5481565b60005442101561065a576040517f08c379a00000000000000000000000000000000000000000000000000000000081526004016106519061110a565b60405180910390fd5b600160009054906101000a900473ffffffffffffffffffffffffffffffffffffffff1673ffffffffffffffffffffffffffffffffffffffff163373ffffffffffffffffffffffffffffffffffffffff16146106ea576040517f08c379a00000000000000000000000000000000000000000000000000000000081526004016106e190611176565b60405180910390fd5b7fbf2ed60bd5b5965d685680c01195c9514e4382e28e3a5a2d2d5244bf59411b93474260405161071b929190611196565b60405180910390a1600160009054906101000a900473ffffffffffffffffffffffffffffffffffffffff1673ffffffffffffffffffffffffffffffffffffffff166108fc479081150290604051600060405180830381858888f1935050505015801561078b573d6000803e3d6000fd5b50565b60066020528060005260406000206000915090505481565b600b6020528060005260406000206000915090505481565b600160009054906101000a900473ffffffffffffffffffffffffffffffffffffffff1681565b600380546107f190610f2a565b80601f016020809104026020016040519081016040528092919081815260200182805461081d90610f2a565b801561086a5780601f1061083f5761010080835404028352916020019161086a565b820191906000526020600020905b81548152906001019060200180831161084d57829003601f168201915b505050505081565b60076020528060005260406000206000915054906101000a900460ff1681565b600034116108d5576040517f08c379a00000000000000000000000000000000000000000000000000000000081526004016108cc90611231565b60405180910390fd5b6000349050600160009054906101000a900473ffffffffffffffffffffffffffffffffffffffff1673ffffffffffffffffffffffffffffffffffffffff166108fc829081150290604051600060405180830381858888f19350505050158015610942573d6000803e3d6000fd5b5050565b600c5481565b600854421115610991576040517f08c379a00000000000000000000000000000000000000000000000000000000081526004016109889061129d565b60405180910390fd5b6009544211156109d6576040517f08c379a00000000000000000000000000000000000000000000000000000000081526004016109cd90611309565b60405180910390fd5b600760003373ffffffffffffffffffffffffffffffffffffffff1673ffffffffffffffffffffffffffffffffffffffff16815260200190815260200160002060009054906101000a900460ff16610a62576040517f08c379a0000000000000000000000000000000000000000000000000000000008152600401610a599061139b565b60405180910390fd5b34600c6000828254610a7491906113bb565b9250508190555034600b60003373ffffffffffffffffffffffffffffffffffffffff1673ffffffffffffffffffffffffffffffffffffffff1681526020019081526020016000206000828254610aca91906113bb565b92505081905550600160009054906101000a900473ffffffffffffffffffffffffffffffffffffffff1673ffffffffffffffffffffffffffffffffffffffff166108fc349081150290604051600060405180830381858888f19350505050158015610b39573d6000803e3d6000fd5b50565b600160009054906101000a900473ffffffffffffffffffffffffffffffffffffffff1673ffffffffffffffffffffffffffffffffffffffff163373ffffffffffffffffffffffffffffffffffffffff1614610bcc576040517f08c379a0000000000000000000000000000000000000000000000000000000008152600401610bc390610fcd565b60405180910390fd5b60011515600760008373ffffffffffffffffffffffffffffffffffffffff1673ffffffffffffffffffffffffffffffffffffffff16815260200190815260200160002060009054906101000a900460ff16151514610c5f576040517f08c379a0000000000000000000000000000000000000000000000000000000008152600401610c569061143b565b60405180910390fd5b6001600760008373ffffffffffffffffffffffffffffffffffffffff1673ffffffffffffffffffffffffffffffffffffffff16815260200190815260200160002060006101000a81548160ff02191690831515021790555050565b600081519050919050565b600082825260208201905092915050565b60005b83811015610cf4578082015181840152602081019050610cd9565b60008484015250505050565b6000601f19601f8301169050919050565b6000610d1c82610cba565b610d268185610cc5565b9350610d36818560208601610cd6565b610d3f81610d00565b840191505092915050565b60006020820190508181036000830152610d648184610d11565b905092915050565b600080fd5b600073ffffffffffffffffffffffffffffffffffffffff82169050919050565b6000610d9c82610d71565b9050919050565b610dac81610d91565b8114610db757600080fd5b50565b600081359050610dc981610da3565b92915050565b600060208284031215610de557610de4610d6c565b5b6000610df384828501610dba565b91505092915050565b6000819050919050565b610e0f81610dfc565b82525050565b6000602082019050610e2a6000830184610e06565b92915050565b6000610e3b82610d71565b9050919050565b610e4b81610e30565b8114610e5657600080fd5b50565b600081359050610e6881610e42565b92915050565b600060208284031215610e8457610e83610d6c565b5b6000610e9284828501610e59565b91505092915050565b610ea481610d91565b82525050565b6000602082019050610ebf6000830184610e9b565b92915050565b60008115159050919050565b610eda81610ec5565b82525050565b6000602082019050610ef56000830184610ed1565b92915050565b7f4e487b7100000000000000000000000000000000000000000000000000000000600052602260045260246000fd5b60006002820490506001821680610f4257607f821691505b602082108103610f5557610f54610efb565b5b50919050565b7f4f6e6c7920636f6e7472616374206f776e65722063616e2061646420746f207760008201527f686974656c697374000000000000000000000000000000000000000000000000602082015250565b6000610fb7602883610cc5565b9150610fc282610f5b565b604082019050919050565b60006020820190508181036000830152610fe681610faa565b9050919050565b7f4e487b7100000000000000000000000000000000000000000000000000000000600052601260045260246000fd5b7f4e487b7100000000000000000000000000000000000000000000000000000000600052601160045260246000fd5b600061105682610dfc565b915061106183610dfc565b92508261107157611070610fed565b5b828204905092915050565b600061108782610dfc565b915061109283610dfc565b92508282026110a081610dfc565b915082820484148315176110b7576110b661101c565b5b5092915050565b7f596f752063616e27742077697468647261772079657400000000000000000000600082015250565b60006110f4601683610cc5565b91506110ff826110be565b602082019050919050565b60006020820190508181036000830152611123816110e7565b9050919050565b7f596f75206172656e277420746865206f776e6572000000000000000000000000600082015250565b6000611160601483610cc5565b915061116b8261112a565b602082019050919050565b6000602082019050818103600083015261118f81611153565b9050919050565b60006040820190506111ab6000830185610e06565b6111b86020830184610e06565b9392505050565b7f5061796d656e7420616d6f756e74206d7573742062652067726561746572207460008201527f68616e20302e0000000000000000000000000000000000000000000000000000602082015250565b600061121b602683610cc5565b9150611226826111bf565b604082019050919050565b6000602082019050818103600083015261124a8161120e565b9050919050565b7f43726f776473616c65206e6f7420737461727465642079657420000000000000600082015250565b6000611287601a83610cc5565b915061129282611251565b602082019050919050565b600060208201905081810360008301526112b68161127a565b9050919050565b7f43726f776473616c652068617320656e64656400000000000000000000000000600082015250565b60006112f3601383610cc5565b91506112fe826112bd565b602082019050919050565b60006020820190508181036000830152611322816112e6565b9050919050565b7f4f6e6c792077686974656c69737465642075736572732063616e20707572636860008201527f61736520746f6b656e7300000000000000000000000000000000000000000000602082015250565b6000611385602a83610cc5565b915061139082611329565b604082019050919050565b600060208201905081810360008301526113b481611378565b9050919050565b60006113c682610dfc565b91506113d183610dfc565b92508282019050808211156113e9576113e861101c565b5b92915050565b7f496e76616c696420616464726573730000000000000000000000000000000000600082015250565b6000611425600f83610cc5565b9150611430826113ef565b602082019050919050565b6000602082019050818103600083015261145481611418565b905091905056fea2646970667358221220716d621246fc94d8c3ed90bfb8fa9bb914a91293c9c6b5c95caeeba5b0bda6e164736f6c63430008120033",
  "linkReferences": {},
  "deployedLinkReferences": {}
}