{
  "_format": "hh-sol-artifact-1",
  "contractName": "Lock",
  "sourceName": "contracts/Lock.sol",
  "abi": [
    {
      "inputs": [],
      "stateMutability": "payable",
      "type": "constructor"
    },
    {
      "anonymous": false,
      "inputs": [
        {
          "indexed": false,
          "internalType": "uint256",
          "name": "amount",
          "type": "uint256"
        },
        {
          "indexed": false,
          "internalType": "uint256",
          "name": "when",
          "type": "uint256"
        }
      ],
      "name": "Withdrawal",
      "type": "event"
    },
    {
      "inputs": [
        {
          "internalType": "address payable",
          "name": "user",
          "type": "address"
        }
      ],
      "name": "Claim",
      "outputs": [],
      "stateMutability": "payable",
      "type": "function"
    },
    {
      "inputs": [
        {
          "internalType": "address",
          "name": "user",
          "type": "address"
        }
      ],
      "name": "addWhitelist",
      "outputs": [],
      "stateMutability": "nonpayable",
      "type": "function"
    },
    {
      "inputs": [],
      "name": "buy",
      "outputs": [],
      "stateMutability": "payable",
      "type": "function"
    },
    {
      "inputs": [],
      "name": "buyTokens",
      "outputs": [],
      "stateMutability": "payable",
      "type": "function"
    },
    {
      "inputs": [
        {
          "internalType": "address",
          "name": "_address",
          "type": "address"
        }
      ],
      "name": "checkInWhitelist",
      "outputs": [
        {
          "internalType": "bool",
          "name": "",
          "type": "bool"
        }
      ],
      "stateMutability": "view",
      "type": "function"
    },
    {
      "inputs": [
        {
          "internalType": "address",
          "name": "",
          "type": "address"
        }
      ],
      "name": "customersBalance",
      "outputs": [
        {
          "internalType": "uint256",
          "name": "",
          "type": "uint256"
        }
      ],
      "stateMutability": "view",
      "type": "function"
    },
    {
      "inputs": [],
      "name": "deadline",
      "outputs": [
        {
          "internalType": "uint256",
          "name": "",
          "type": "uint256"
        }
      ],
      "stateMutability": "view",
      "type": "function"
    },
    {
      "inputs": [],
      "name": "decimals",
      "outputs": [
        {
          "internalType": "uint256",
          "name": "",
          "type": "uint256"
        }
      ],
      "stateMutability": "view",
      "type": "function"
    },
    {
      "inputs": [],
      "name": "getBalance",
      "outputs": [
        {
          "internalType": "uint256",
          "name": "",
          "type": "uint256"
        }
      ],
      "stateMutability": "view",
      "type": "function"
    },
    {
      "inputs": [],
      "name": "name",
      "outputs": [
        {
          "internalType": "string",
          "name": "",
          "type": "string"
        }
      ],
      "stateMutability": "view",
      "type": "function"
    },
    {
      "inputs": [],
      "name": "owner",
      "outputs": [
        {
          "internalType": "address payable",
          "name": "",
          "type": "address"
        }
      ],
      "stateMutability": "view",
      "type": "function"
    },
    {
      "inputs": [],
      "name": "startline",
      "outputs": [
        {
          "internalType": "uint256",
          "name": "",
          "type": "uint256"
        }
      ],
      "stateMutability": "view",
      "type": "function"
    },
    {
      "inputs": [],
      "name": "symbol",
      "outputs": [
        {
          "internalType": "string",
          "name": "",
          "type": "string"
        }
      ],
      "stateMutability": "view",
      "type": "function"
    },
    {
      "inputs": [],
      "name": "totalStock",
      "outputs": [
        {
          "internalType": "uint256",
          "name": "",
          "type": "uint256"
        }
      ],
      "stateMutability": "view",
      "type": "function"
    },
    {
      "inputs": [],
      "name": "totalSupply",
      "outputs": [
        {
          "internalType": "uint256",
          "name": "",
          "type": "uint256"
        }
      ],
      "stateMutability": "view",
      "type": "function"
    },
    {
      "inputs": [],
      "name": "unlockTime",
      "outputs": [
        {
          "internalType": "uint256",
          "name": "",
          "type": "uint256"
        }
      ],
      "stateMutability": "view",
      "type": "function"
    },
    {
      "inputs": [
        {
          "internalType": "address",
          "name": "",
          "type": "address"
        }
      ],
      "name": "whitelist",
      "outputs": [
        {
          "internalType": "bool",
          "name": "",
          "type": "bool"
        }
      ],
      "stateMutability": "view",
      "type": "function"
    },
    {
      "inputs": [],
      "name": "withdraw",
      "outputs": [],
      "stateMutability": "nonpayable",
      "type": "function"
    }
  ],
  "bytecode": "0x60806040526364075f80600a556364101c47600b556040518060400160405280600781526020017f5a59746f6b656e00000000000000000000000000000000000000000000000000815250600290816200005a919062000406565b506040518060400160405280600481526020017f5a4249540000000000000000000000000000000000000000000000000000000081525060039081620000a1919062000406565b506012600481905550600454600a620000bb919062000670565b612710620000ca9190620006c1565b60058190555033600160006101000a81548173ffffffffffffffffffffffffffffffffffffffff021916908373ffffffffffffffffffffffffffffffffffffffff16021790555060016007600073ca35b7d915458ef540ade6068dfe2f44e8fa733c73ffffffffffffffffffffffffffffffffffffffff1673ffffffffffffffffffffffffffffffffffffffff16815260200190815260200160002060006101000a81548160ff0219169083151502179055506127106008819055506200070c565b600081519050919050565b7f4e487b7100000000000000000000000000000000000000000000000000000000600052604160045260246000fd5b7f4e487b7100000000000000000000000000000000000000000000000000000000600052602260045260246000fd5b600060028204905060018216806200020e57607f821691505b602082108103620002245762000223620001c6565b5b50919050565b60008190508160005260206000209050919050565b60006020601f8301049050919050565b600082821b905092915050565b6000600883026200028e7fffffffffffffffffffffffffffffffffffffffffffffffffffffffffffffffff826200024f565b6200029a86836200024f565b95508019841693508086168417925050509392505050565b6000819050919050565b6000819050919050565b6000620002e7620002e1620002db84620002b2565b620002bc565b620002b2565b9050919050565b6000819050919050565b6200030383620002c6565b6200031b6200031282620002ee565b8484546200025c565b825550505050565b600090565b6200033262000323565b6200033f818484620002f8565b505050565b5b8181101562000367576200035b60008262000328565b60018101905062000345565b5050565b601f821115620003b65762000380816200022a565b6200038b846200023f565b810160208510156200039b578190505b620003b3620003aa856200023f565b83018262000344565b50505b505050565b600082821c905092915050565b6000620003db60001984600802620003bb565b1980831691505092915050565b6000620003f68383620003c8565b9150826002028217905092915050565b62000411826200018c565b67ffffffffffffffff8111156200042d576200042c62000197565b5b620004398254620001f5565b620004468282856200036b565b600060209050601f8311600181146200047e576000841562000469578287015190505b620004758582620003e8565b865550620004e5565b601f1984166200048e866200022a565b60005b82811015620004b85784890151825560018201915060208501945060208101905062000491565b86831015620004d85784890151620004d4601f891682620003c8565b8355505b6001600288020188555050505b505050505050565b7f4e487b7100000000000000000000000000000000000000000000000000000000600052601160045260246000fd5b60008160011c9050919050565b6000808291508390505b60018511156200057b57808604811115620005535762000552620004ed565b5b6001851615620005635780820291505b808102905062000573856200051c565b945062000533565b94509492505050565b60008262000596576001905062000669565b81620005a6576000905062000669565b8160018114620005bf5760028114620005ca5762000600565b600191505062000669565b60ff841115620005df57620005de620004ed565b5b8360020a915084821115620005f957620005f8620004ed565b5b5062000669565b5060208310610133831016604e8410600b84101617156200063a5782820a905083811115620006345762000633620004ed565b5b62000669565b62000649848484600162000529565b92509050818404811115620006635762000662620004ed565b5b81810290505b9392505050565b60006200067d82620002b2565b91506200068a83620002b2565b9250620006b97fffffffffffffffffffffffffffffffffffffffffffffffffffffffffffffffff848462000584565b905092915050565b6000620006ce82620002b2565b9150620006db83620002b2565b9250828202620006eb81620002b2565b91508282048414831517620007055762000704620004ed565b5b5092915050565b6115ce806200071c6000396000f3fe6080604052600436106101095760003560e01c8063612a590f116100955780639b19251a116100645780639b19251a1461033e578063a6f2ae3a1461037b578063b1a951da14610385578063d0febe4c146103b0578063f80f5dd5146103ba57610109565b8063612a590f1461026e5780636884ea58146102ab5780638da5cb5b146102e857806395d89b411461031357610109565b80631ffe4cca116100dc5780631ffe4cca146101ab578063251c1aa3146101d657806329dcb0cf14610201578063313ce5671461022c5780633ccfd60b1461025757610109565b806306fdde031461010e5780630c7ef9321461013957806312065fe01461015557806318160ddd14610180575b600080fd5b34801561011a57600080fd5b506101236103e3565b6040516101309190610e1b565b60405180910390f35b610153600480360381019061014e9190610ea0565b610471565b005b34801561016157600080fd5b5061016a61066b565b6040516101779190610ee6565b60405180910390f35b34801561018c57600080fd5b50610195610673565b6040516101a29190610ee6565b60405180910390f35b3480156101b757600080fd5b506101c0610679565b6040516101cd9190610ee6565b60405180910390f35b3480156101e257600080fd5b506101eb61067f565b6040516101f89190610ee6565b60405180910390f35b34801561020d57600080fd5b50610216610685565b6040516102239190610ee6565b60405180910390f35b34801561023857600080fd5b5061024161068b565b60405161024e9190610ee6565b60405180910390f35b34801561026357600080fd5b5061026c610691565b005b34801561027a57600080fd5b5061029560048036038101906102909190610f3f565b61080a565b6040516102a29190610ee6565b60405180910390f35b3480156102b757600080fd5b506102d260048036038101906102cd9190610f3f565b610822565b6040516102df9190610f87565b60405180910390f35b3480156102f457600080fd5b506102fd61088f565b60405161030a9190610fb1565b60405180910390f35b34801561031f57600080fd5b506103286108b5565b6040516103359190610e1b565b60405180910390f35b34801561034a57600080fd5b5061036560048036038101906103609190610f3f565b610943565b6040516103729190610f87565b60405180910390f35b610383610963565b005b34801561039157600080fd5b5061039a610a17565b6040516103a79190610ee6565b60405180910390f35b6103b8610a1d565b005b3480156103c657600080fd5b506103e160048036038101906103dc9190610f3f565b610c0d565b005b600280546103f090610ffb565b80601f016020809104026020016040519081016040528092919081815260200182805461041c90610ffb565b80156104695780601f1061043e57610100808354040283529160200191610469565b820191906000526020600020905b81548152906001019060200180831161044c57829003601f168201915b505050505081565b600760003373ffffffffffffffffffffffffffffffffffffffff1673ffffffffffffffffffffffffffffffffffffffff16815260200190815260200160002060009054906101000a900460ff166104fd576040517f08c379a00000000000000000000000000000000000000000000000000000000081526004016104f49061109e565b60405180910390fd5b6000600660003373ffffffffffffffffffffffffffffffffffffffff1673ffffffffffffffffffffffffffffffffffffffff168152602001908152602001600020541161057f576040517f08c379a00000000000000000000000000000000000000000000000000000000081526004016105769061110a565b60405180910390fd5b6000600854600954600660003373ffffffffffffffffffffffffffffffffffffffff1673ffffffffffffffffffffffffffffffffffffffff168152602001908152602001600020546105d19190611188565b6105db91906111b9565b90508173ffffffffffffffffffffffffffffffffffffffff166108fc829081150290604051600060405180830381858888f19350505050158015610623573d6000803e3d6000fd5b50600660003373ffffffffffffffffffffffffffffffffffffffff1673ffffffffffffffffffffffffffffffffffffffff168152602001908152602001600020600090555050565b600047905090565b60055481565b600a5481565b60005481565b600b5481565b60045481565b6000544210156106d6576040517f08c379a00000000000000000000000000000000000000000000000000000000081526004016106cd90611247565b60405180910390fd5b600160009054906101000a900473ffffffffffffffffffffffffffffffffffffffff1673ffffffffffffffffffffffffffffffffffffffff163373ffffffffffffffffffffffffffffffffffffffff1614610766576040517f08c379a000000000000000000000000000000000000000000000000000000000815260040161075d906112b3565b60405180910390fd5b7fbf2ed60bd5b5965d685680c01195c9514e4382e28e3a5a2d2d5244bf59411b9347426040516107979291906112d3565b60405180910390a1600160009054906101000a900473ffffffffffffffffffffffffffffffffffffffff1673ffffffffffffffffffffffffffffffffffffffff166108fc479081150290604051600060405180830381858888f19350505050158015610807573d6000803e3d6000fd5b50565b60066020528060005260406000206000915090505481565b600060011515600760008473ffffffffffffffffffffffffffffffffffffffff1673ffffffffffffffffffffffffffffffffffffffff16815260200190815260200160002060009054906101000a900460ff16151503610885576001905061088a565b600090505b919050565b600160009054906101000a900473ffffffffffffffffffffffffffffffffffffffff1681565b600380546108c290610ffb565b80601f01602080910402602001604051908101604052809291908181526020018280546108ee90610ffb565b801561093b5780601f106109105761010080835404028352916020019161093b565b820191906000526020600020905b81548152906001019060200180831161091e57829003601f168201915b505050505081565b60076020528060005260406000206000915054906101000a900460ff1681565b600034116109a6576040517f08c379a000000000000000000000000000000000000000000000000000000000815260040161099d9061136e565b60405180910390fd5b6000349050600160009054906101000a900473ffffffffffffffffffffffffffffffffffffffff1673ffffffffffffffffffffffffffffffffffffffff166108fc829081150290604051600060405180830381858888f19350505050158015610a13573d6000803e3d6000fd5b5050565b60095481565b600a54421115610a62576040517f08c379a0000000000000000000000000000000000000000000000000000000008152600401610a59906113da565b60405180910390fd5b600b54421115610aa7576040517f08c379a0000000000000000000000000000000000000000000000000000000008152600401610a9e90611446565b60405180910390fd5b600760003373ffffffffffffffffffffffffffffffffffffffff1673ffffffffffffffffffffffffffffffffffffffff16815260200190815260200160002060009054906101000a900460ff16610b33576040517f08c379a0000000000000000000000000000000000000000000000000000000008152600401610b2a906114d8565b60405180910390fd5b3460096000828254610b4591906114f8565b9250508190555034600660003373ffffffffffffffffffffffffffffffffffffffff1673ffffffffffffffffffffffffffffffffffffffff1681526020019081526020016000206000828254610b9b91906114f8565b92505081905550600160009054906101000a900473ffffffffffffffffffffffffffffffffffffffff1673ffffffffffffffffffffffffffffffffffffffff166108fc349081150290604051600060405180830381858888f19350505050158015610c0a573d6000803e3d6000fd5b50565b600160009054906101000a900473ffffffffffffffffffffffffffffffffffffffff1673ffffffffffffffffffffffffffffffffffffffff163373ffffffffffffffffffffffffffffffffffffffff1614610c9d576040517f08c379a0000000000000000000000000000000000000000000000000000000008152600401610c949061109e565b60405180910390fd5b60011515600760008373ffffffffffffffffffffffffffffffffffffffff1673ffffffffffffffffffffffffffffffffffffffff16815260200190815260200160002060009054906101000a900460ff16151514610d30576040517f08c379a0000000000000000000000000000000000000000000000000000000008152600401610d2790611578565b60405180910390fd5b6001600760008373ffffffffffffffffffffffffffffffffffffffff1673ffffffffffffffffffffffffffffffffffffffff16815260200190815260200160002060006101000a81548160ff02191690831515021790555050565b600081519050919050565b600082825260208201905092915050565b60005b83811015610dc5578082015181840152602081019050610daa565b60008484015250505050565b6000601f19601f8301169050919050565b6000610ded82610d8b565b610df78185610d96565b9350610e07818560208601610da7565b610e1081610dd1565b840191505092915050565b60006020820190508181036000830152610e358184610de2565b905092915050565b600080fd5b600073ffffffffffffffffffffffffffffffffffffffff82169050919050565b6000610e6d82610e42565b9050919050565b610e7d81610e62565b8114610e8857600080fd5b50565b600081359050610e9a81610e74565b92915050565b600060208284031215610eb657610eb5610e3d565b5b6000610ec484828501610e8b565b91505092915050565b6000819050919050565b610ee081610ecd565b82525050565b6000602082019050610efb6000830184610ed7565b92915050565b6000610f0c82610e42565b9050919050565b610f1c81610f01565b8114610f2757600080fd5b50565b600081359050610f3981610f13565b92915050565b600060208284031215610f5557610f54610e3d565b5b6000610f6384828501610f2a565b91505092915050565b60008115159050919050565b610f8181610f6c565b82525050565b6000602082019050610f9c6000830184610f78565b92915050565b610fab81610e62565b82525050565b6000602082019050610fc66000830184610fa2565b92915050565b7f4e487b7100000000000000000000000000000000000000000000000000000000600052602260045260246000fd5b6000600282049050600182168061101357607f821691505b60208210810361102657611025610fcc565b5b50919050565b7f4f6e6c7920636f6e7472616374206f776e65722063616e2061646420746f207760008201527f686974656c697374000000000000000000000000000000000000000000000000602082015250565b6000611088602883610d96565b91506110938261102c565b604082019050919050565b600060208201905081810360008301526110b78161107b565b9050919050565b7f416c7265616479207472616e7366657272656400000000000000000000000000600082015250565b60006110f4601383610d96565b91506110ff826110be565b602082019050919050565b60006020820190508181036000830152611123816110e7565b9050919050565b7f4e487b7100000000000000000000000000000000000000000000000000000000600052601260045260246000fd5b7f4e487b7100000000000000000000000000000000000000000000000000000000600052601160045260246000fd5b600061119382610ecd565b915061119e83610ecd565b9250826111ae576111ad61112a565b5b828204905092915050565b60006111c482610ecd565b91506111cf83610ecd565b92508282026111dd81610ecd565b915082820484148315176111f4576111f3611159565b5b5092915050565b7f596f752063616e27742077697468647261772079657400000000000000000000600082015250565b6000611231601683610d96565b915061123c826111fb565b602082019050919050565b6000602082019050818103600083015261126081611224565b9050919050565b7f596f75206172656e277420746865206f776e6572000000000000000000000000600082015250565b600061129d601483610d96565b91506112a882611267565b602082019050919050565b600060208201905081810360008301526112cc81611290565b9050919050565b60006040820190506112e86000830185610ed7565b6112f56020830184610ed7565b9392505050565b7f5061796d656e7420616d6f756e74206d7573742062652067726561746572207460008201527f68616e20302e0000000000000000000000000000000000000000000000000000602082015250565b6000611358602683610d96565b9150611363826112fc565b604082019050919050565b600060208201905081810360008301526113878161134b565b9050919050565b7f43726f776473616c65206e6f7420737461727465642079657420000000000000600082015250565b60006113c4601a83610d96565b91506113cf8261138e565b602082019050919050565b600060208201905081810360008301526113f3816113b7565b9050919050565b7f43726f776473616c652068617320656e64656400000000000000000000000000600082015250565b6000611430601383610d96565b915061143b826113fa565b602082019050919050565b6000602082019050818103600083015261145f81611423565b9050919050565b7f4f6e6c792077686974656c69737465642075736572732063616e20707572636860008201527f61736520746f6b656e7300000000000000000000000000000000000000000000602082015250565b60006114c2602a83610d96565b91506114cd82611466565b604082019050919050565b600060208201905081810360008301526114f1816114b5565b9050919050565b600061150382610ecd565b915061150e83610ecd565b925082820190508082111561152657611525611159565b5b92915050565b7f496e76616c696420616464726573730000000000000000000000000000000000600082015250565b6000611562600f83610d96565b915061156d8261152c565b602082019050919050565b6000602082019050818103600083015261159181611555565b905091905056fea2646970667358221220da6fbf0f691aff1efc6ca8bae7768539ea04c09564d9ad16b641da894861c58964736f6c63430008120033",
  "linkReferences": {},
  "deployedLinkReferences": {}
}