{
  "_format": "hh-sol-artifact-1",
  "contractName": "Crowdsale",
  "sourceName": "contracts/Crowdsale.sol",
  "abi": [
    {
      "inputs": [
        {
          "internalType": "address payable",
          "name": "_address",
          "type": "address"
        }
      ],
      "stateMutability": "nonpayable",
      "type": "constructor"
    },
    {
      "inputs": [],
      "name": "Claim",
      "outputs": [],
      "stateMutability": "payable",
      "type": "function"
    },
    {
      "inputs": [
        {
          "internalType": "address",
          "name": "_address",
          "type": "address"
        }
      ],
      "name": "addWhitelist",
      "outputs": [],
      "stateMutability": "nonpayable",
      "type": "function"
    },
    {
      "inputs": [
        {
          "internalType": "address",
          "name": "_address",
          "type": "address"
        }
      ],
      "name": "checkInWhitelist",
      "outputs": [
        {
          "internalType": "bool",
          "name": "",
          "type": "bool"
        }
      ],
      "stateMutability": "view",
      "type": "function"
    },
    {
      "inputs": [],
      "name": "crowdSale",
      "outputs": [],
      "stateMutability": "payable",
      "type": "function"
    },
    {
      "inputs": [
        {
          "internalType": "address",
          "name": "",
          "type": "address"
        }
      ],
      "name": "customersBalance",
      "outputs": [
        {
          "internalType": "uint256",
          "name": "",
          "type": "uint256"
        }
      ],
      "stateMutability": "view",
      "type": "function"
    },
    {
      "inputs": [],
      "name": "deadline",
      "outputs": [
        {
          "internalType": "uint256",
          "name": "",
          "type": "uint256"
        }
      ],
      "stateMutability": "view",
      "type": "function"
    },
    {
      "inputs": [],
      "name": "getCurrentTimestamp",
      "outputs": [
        {
          "internalType": "uint256",
          "name": "",
          "type": "uint256"
        }
      ],
      "stateMutability": "view",
      "type": "function"
    },
    {
      "inputs": [],
      "name": "getTimestamp",
      "outputs": [
        {
          "internalType": "uint256",
          "name": "",
          "type": "uint256"
        }
      ],
      "stateMutability": "view",
      "type": "function"
    },
    {
      "inputs": [
        {
          "internalType": "address",
          "name": "_address",
          "type": "address"
        }
      ],
      "name": "inquireMyExpectBalance",
      "outputs": [
        {
          "internalType": "uint256",
          "name": "",
          "type": "uint256"
        }
      ],
      "stateMutability": "view",
      "type": "function"
    },
    {
      "inputs": [],
      "name": "jackpot",
      "outputs": [
        {
          "internalType": "uint256",
          "name": "",
          "type": "uint256"
        }
      ],
      "stateMutability": "view",
      "type": "function"
    },
    {
      "inputs": [],
      "name": "owner",
      "outputs": [
        {
          "internalType": "address payable",
          "name": "",
          "type": "address"
        }
      ],
      "stateMutability": "view",
      "type": "function"
    },
    {
      "inputs": [],
      "name": "ownerWallet",
      "outputs": [
        {
          "internalType": "uint256",
          "name": "",
          "type": "uint256"
        }
      ],
      "stateMutability": "view",
      "type": "function"
    },
    {
      "inputs": [],
      "name": "ownerwalletAddress",
      "outputs": [
        {
          "internalType": "address payable",
          "name": "",
          "type": "address"
        }
      ],
      "stateMutability": "view",
      "type": "function"
    },
    {
      "inputs": [
        {
          "internalType": "uint256",
          "name": "_amount",
          "type": "uint256"
        }
      ],
      "name": "resetBalance",
      "outputs": [],
      "stateMutability": "nonpayable",
      "type": "function"
    },
    {
      "inputs": [
        {
          "internalType": "uint256",
          "name": "_starttime",
          "type": "uint256"
        },
        {
          "internalType": "uint256",
          "name": "_endtime",
          "type": "uint256"
        }
      ],
      "name": "setTime",
      "outputs": [],
      "stateMutability": "nonpayable",
      "type": "function"
    },
    {
      "inputs": [],
      "name": "startline",
      "outputs": [
        {
          "internalType": "uint256",
          "name": "",
          "type": "uint256"
        }
      ],
      "stateMutability": "view",
      "type": "function"
    },
    {
      "inputs": [],
      "name": "tokenContract",
      "outputs": [
        {
          "internalType": "contract MyToken",
          "name": "",
          "type": "address"
        }
      ],
      "stateMutability": "view",
      "type": "function"
    },
    {
      "inputs": [
        {
          "internalType": "address",
          "name": "",
          "type": "address"
        }
      ],
      "name": "whitelist",
      "outputs": [
        {
          "internalType": "bool",
          "name": "",
          "type": "bool"
        }
      ],
      "stateMutability": "view",
      "type": "function"
    }
  ],
  "bytecode": "0x608060405263641985f660015563641acd726002553480156200002157600080fd5b5060405162001974380380620019748339818101604052810190620000479190620001a2565b80600a60006101000a81548173ffffffffffffffffffffffffffffffffffffffff021916908373ffffffffffffffffffffffffffffffffffffffff16021790555033600360006101000a81548173ffffffffffffffffffffffffffffffffffffffff021916908373ffffffffffffffffffffffffffffffffffffffff1602179055506001600960003373ffffffffffffffffffffffffffffffffffffffff1673ffffffffffffffffffffffffffffffffffffffff16815260200190815260200160002060006101000a81548160ff021916908315150217905550686c6b935b8bbd40000060068190555050620001d4565b600080fd5b600073ffffffffffffffffffffffffffffffffffffffff82169050919050565b60006200016a826200013d565b9050919050565b6200017c816200015d565b81146200018857600080fd5b50565b6000815190506200019c8162000171565b92915050565b600060208284031215620001bb57620001ba62000138565b5b6000620001cb848285016200018b565b91505092915050565b61179080620001e46000396000f3fe6080604052600436106101095760003560e01c80636c9230db116100955780639335dcb7116100645780639335dcb7146103315780639b19251a1461035c578063a0355eca14610399578063c27b7a24146103c2578063f80f5dd5146103eb57610109565b80636c9230db146102a65780637770bd15146102d1578063863450f3146102db5780638da5cb5b1461030657610109565b80633158952e116100dc5780633158952e146101cc57806355a373d6146101d6578063612a590f146102015780636884ea581461023e5780636b31ee011461027b57610109565b806316995e361461010e578063188ec3561461014b5780631ffe4cca1461017657806329dcb0cf146101a1575b600080fd5b34801561011a57600080fd5b5061013560048036038101906101309190610ec0565b610414565b6040516101429190610f06565b60405180910390f35b34801561015757600080fd5b5061016061051d565b60405161016d9190610f06565b60405180910390f35b34801561018257600080fd5b5061018b610525565b6040516101989190610f06565b60405180910390f35b3480156101ad57600080fd5b506101b661052b565b6040516101c39190610f06565b60405180910390f35b6101d4610531565b005b3480156101e257600080fd5b506101eb610838565b6040516101f89190610f80565b60405180910390f35b34801561020d57600080fd5b5061022860048036038101906102239190610ec0565b61085c565b6040516102359190610f06565b60405180910390f35b34801561024a57600080fd5b5061026560048036038101906102609190610ec0565b610874565b6040516102729190610fb6565b60405180910390f35b34801561028757600080fd5b506102906108e1565b60405161029d9190610f06565b60405180910390f35b3480156102b257600080fd5b506102bb6108e7565b6040516102c89190610f06565b60405180910390f35b6102d9610941565b005b3480156102e757600080fd5b506102f0610b31565b6040516102fd9190610ff2565b60405180910390f35b34801561031257600080fd5b5061031b610b57565b6040516103289190610ff2565b60405180910390f35b34801561033d57600080fd5b50610346610b7d565b6040516103539190610f06565b60405180910390f35b34801561036857600080fd5b50610383600480360381019061037e9190610ec0565b610b83565b6040516103909190610fb6565b60405180910390f35b3480156103a557600080fd5b506103c060048036038101906103bb9190611039565b610ba3565b005b3480156103ce57600080fd5b506103e960048036038101906103e49190611079565b610c45565b005b3480156103f757600080fd5b50610412600480360381019061040d9190610ec0565b610cdf565b005b6000600960008373ffffffffffffffffffffffffffffffffffffffff1673ffffffffffffffffffffffffffffffffffffffff16815260200190815260200160002060009054906101000a900460ff166104a2576040517f08c379a000000000000000000000000000000000000000000000000000000000815260040161049990611103565b60405180910390fd5b6103e86006546004546103e8600860008773ffffffffffffffffffffffffffffffffffffffff1673ffffffffffffffffffffffffffffffffffffffff168152602001908152602001600020546104f89190611152565b61050291906111c3565b61050c9190611152565b61051691906111c3565b9050919050565b600042905090565b60015481565b60025481565b600960003373ffffffffffffffffffffffffffffffffffffffff1673ffffffffffffffffffffffffffffffffffffffff16815260200190815260200160002060009054906101000a900460ff166105bd576040517f08c379a00000000000000000000000000000000000000000000000000000000081526004016105b490611240565b60405180910390fd5b6000600860003373ffffffffffffffffffffffffffffffffffffffff1673ffffffffffffffffffffffffffffffffffffffff168152602001908152602001600020541161063f576040517f08c379a0000000000000000000000000000000000000000000000000000000008152600401610636906112d2565b60405180910390fd5b60006103e86006546004546103e8600860003373ffffffffffffffffffffffffffffffffffffffff1673ffffffffffffffffffffffffffffffffffffffff168152602001908152602001600020546106979190611152565b6106a191906111c3565b6106ab9190611152565b6106b591906111c3565b905060008054906101000a900473ffffffffffffffffffffffffffffffffffffffff1673ffffffffffffffffffffffffffffffffffffffff166323b872dd600360009054906101000a900473ffffffffffffffffffffffffffffffffffffffff1633846040518463ffffffff1660e01b815260040161073693929190611322565b6020604051808303816000875af1158015610755573d6000803e3d6000fd5b505050506040513d601f19601f820116820180604052508101906107799190611385565b508060086000600360009054906101000a900473ffffffffffffffffffffffffffffffffffffffff1673ffffffffffffffffffffffffffffffffffffffff1673ffffffffffffffffffffffffffffffffffffffff16815260200190815260200160002060008282546107eb91906113b2565b92505081905550600860003373ffffffffffffffffffffffffffffffffffffffff1673ffffffffffffffffffffffffffffffffffffffff1681526020019081526020016000206000905550565b60008054906101000a900473ffffffffffffffffffffffffffffffffffffffff1681565b60086020528060005260406000206000915090505481565b600060011515600960008473ffffffffffffffffffffffffffffffffffffffff1673ffffffffffffffffffffffffffffffffffffffff16815260200190815260200160002060009054906101000a900460ff161515036108d757600190506108dc565b600090505b919050565b60065481565b6000600254421015806108fc57506001544211155b61093b576040517f08c379a000000000000000000000000000000000000000000000000000000000815260040161093290611432565b60405180910390fd5b42905090565b600154421015610986576040517f08c379a000000000000000000000000000000000000000000000000000000000815260040161097d9061149e565b60405180910390fd5b6002544211156109cb576040517f08c379a00000000000000000000000000000000000000000000000000000000081526004016109c29061150a565b60405180910390fd5b600960003373ffffffffffffffffffffffffffffffffffffffff1673ffffffffffffffffffffffffffffffffffffffff16815260200190815260200160002060009054906101000a900460ff16610a57576040517f08c379a0000000000000000000000000000000000000000000000000000000008152600401610a4e9061159c565b60405180910390fd5b3460046000828254610a6991906115bc565b9250508190555034600860003373ffffffffffffffffffffffffffffffffffffffff1673ffffffffffffffffffffffffffffffffffffffff1681526020019081526020016000206000828254610abf91906115bc565b92505081905550600360009054906101000a900473ffffffffffffffffffffffffffffffffffffffff1673ffffffffffffffffffffffffffffffffffffffff166108fc349081150290604051600060405180830381858888f19350505050158015610b2e573d6000803e3d6000fd5b50565b600a60009054906101000a900473ffffffffffffffffffffffffffffffffffffffff1681565b600360009054906101000a900473ffffffffffffffffffffffffffffffffffffffff1681565b60045481565b60096020528060005260406000206000915054906101000a900460ff1681565b600360009054906101000a900473ffffffffffffffffffffffffffffffffffffffff1673ffffffffffffffffffffffffffffffffffffffff163373ffffffffffffffffffffffffffffffffffffffff1614610c33576040517f08c379a0000000000000000000000000000000000000000000000000000000008152600401610c2a9061163c565b60405180910390fd5b81600181905550806002819055505050565b600360009054906101000a900473ffffffffffffffffffffffffffffffffffffffff1673ffffffffffffffffffffffffffffffffffffffff163373ffffffffffffffffffffffffffffffffffffffff1614610cd5576040517f08c379a0000000000000000000000000000000000000000000000000000000008152600401610ccc9061163c565b60405180910390fd5b8060068190555050565b600360009054906101000a900473ffffffffffffffffffffffffffffffffffffffff1673ffffffffffffffffffffffffffffffffffffffff163373ffffffffffffffffffffffffffffffffffffffff1614610d6f576040517f08c379a0000000000000000000000000000000000000000000000000000000008152600401610d66906116ce565b60405180910390fd5b60001515600960008373ffffffffffffffffffffffffffffffffffffffff1673ffffffffffffffffffffffffffffffffffffffff16815260200190815260200160002060009054906101000a900460ff16151514610e02576040517f08c379a0000000000000000000000000000000000000000000000000000000008152600401610df99061173a565b60405180910390fd5b6001600960008373ffffffffffffffffffffffffffffffffffffffff1673ffffffffffffffffffffffffffffffffffffffff16815260200190815260200160002060006101000a81548160ff02191690831515021790555050565b600080fd5b600073ffffffffffffffffffffffffffffffffffffffff82169050919050565b6000610e8d82610e62565b9050919050565b610e9d81610e82565b8114610ea857600080fd5b50565b600081359050610eba81610e94565b92915050565b600060208284031215610ed657610ed5610e5d565b5b6000610ee484828501610eab565b91505092915050565b6000819050919050565b610f0081610eed565b82525050565b6000602082019050610f1b6000830184610ef7565b92915050565b6000819050919050565b6000610f46610f41610f3c84610e62565b610f21565b610e62565b9050919050565b6000610f5882610f2b565b9050919050565b6000610f6a82610f4d565b9050919050565b610f7a81610f5f565b82525050565b6000602082019050610f956000830184610f71565b92915050565b60008115159050919050565b610fb081610f9b565b82525050565b6000602082019050610fcb6000830184610fa7565b92915050565b6000610fdc82610e62565b9050919050565b610fec81610fd1565b82525050565b60006020820190506110076000830184610fe3565b92915050565b61101681610eed565b811461102157600080fd5b50565b6000813590506110338161100d565b92915050565b600080604083850312156110505761104f610e5d565b5b600061105e85828601611024565b925050602061106f85828601611024565b9150509250929050565b60006020828403121561108f5761108e610e5d565b5b600061109d84828501611024565b91505092915050565b600082825260208201905092915050565b7f20696e7175697265206661696c00000000000000000000000000000000000000600082015250565b60006110ed600d836110a6565b91506110f8826110b7565b602082019050919050565b6000602082019050818103600083015261111c816110e0565b9050919050565b7f4e487b7100000000000000000000000000000000000000000000000000000000600052601160045260246000fd5b600061115d82610eed565b915061116883610eed565b925082820261117681610eed565b9150828204841483151761118d5761118c611123565b5b5092915050565b7f4e487b7100000000000000000000000000000000000000000000000000000000600052601260045260246000fd5b60006111ce82610eed565b91506111d983610eed565b9250826111e9576111e8611194565b5b828204905092915050565b7f4e6f207065726d697373696f6e00000000000000000000000000000000000000600082015250565b600061122a600d836110a6565b9150611235826111f4565b602082019050919050565b600060208201905081810360008301526112598161121d565b9050919050565b7f5468657265206973206e6f20616d6f756e7420746861742063616e206265207760008201527f697468647261776e000000000000000000000000000000000000000000000000602082015250565b60006112bc6028836110a6565b91506112c782611260565b604082019050919050565b600060208201905081810360008301526112eb816112af565b9050919050565b60006112fd82610f4d565b9050919050565b61130d816112f2565b82525050565b61131c81610e82565b82525050565b60006060820190506113376000830186611304565b6113446020830185611313565b6113516040830184610ef7565b949350505050565b61136281610f9b565b811461136d57600080fd5b50565b60008151905061137f81611359565b92915050565b60006020828403121561139b5761139a610e5d565b5b60006113a984828501611370565b91505092915050565b60006113bd82610eed565b91506113c883610eed565b92508282039050818111156113e0576113df611123565b5b92915050565b7f57656c636f6d65206a6f696e2074686520636f727773616c6520000000000000600082015250565b600061141c601a836110a6565b9150611427826113e6565b602082019050919050565b6000602082019050818103600083015261144b8161140f565b9050919050565b7f43726f776473616c65206e6f7420737461727465642079657420000000000000600082015250565b6000611488601a836110a6565b915061149382611452565b602082019050919050565b600060208201905081810360008301526114b78161147b565b9050919050565b7f43726f776473616c652068617320656e64656400000000000000000000000000600082015250565b60006114f46013836110a6565b91506114ff826114be565b602082019050919050565b60006020820190508181036000830152611523816114e7565b9050919050565b7f4f6e6c792077686974656c69737465642075736572732063616e20707572636860008201527f61736520746f6b656e7300000000000000000000000000000000000000000000602082015250565b6000611586602a836110a6565b91506115918261152a565b604082019050919050565b600060208201905081810360008301526115b581611579565b9050919050565b60006115c782610eed565b91506115d283610eed565b92508282019050808211156115ea576115e9611123565b5b92915050565b7f6c696d6974207065726d697373696f6e00000000000000000000000000000000600082015250565b60006116266010836110a6565b9150611631826115f0565b602082019050919050565b6000602082019050818103600083015261165581611619565b9050919050565b7f4f6e6c7920636f6e7472616374206f776e65722063616e2061646420746f207760008201527f686974656c697374000000000000000000000000000000000000000000000000602082015250565b60006116b86028836110a6565b91506116c38261165c565b604082019050919050565b600060208201905081810360008301526116e7816116ab565b9050919050565b7f416c726561647920616464656420697020746f206c6973740000000000000000600082015250565b60006117246018836110a6565b915061172f826116ee565b602082019050919050565b6000602082019050818103600083015261175381611717565b905091905056fea26469706673582212203d9964f91713db7fe061eef6028cb70e4828bf1147a02e84d9041db27ca7d7ea64736f6c63430008110033",
  "linkReferences": {},
  "deployedLinkReferences": {}
}