{
  "_format": "hh-sol-artifact-1",
  "contractName": "Lock",
  "sourceName": "contracts/Lock.sol",
  "abi": [
    {
      "inputs": [
        {
          "internalType": "uint256",
          "name": "_unlockTime",
          "type": "uint256"
        }
      ],
      "stateMutability": "payable",
      "type": "constructor"
    },
    {
      "anonymous": false,
      "inputs": [
        {
          "indexed": true,
          "internalType": "address",
          "name": "account",
          "type": "address"
        }
      ],
      "name": "AddedToWhitelist",
      "type": "event"
    },
    {
      "anonymous": false,
      "inputs": [
        {
          "indexed": true,
          "internalType": "address",
          "name": "from",
          "type": "address"
        },
        {
          "indexed": true,
          "internalType": "address",
          "name": "to",
          "type": "address"
        },
        {
          "indexed": false,
          "internalType": "uint256",
          "name": "value",
          "type": "uint256"
        }
      ],
      "name": "Crowdsale",
      "type": "event"
    },
    {
      "anonymous": false,
      "inputs": [
        {
          "indexed": true,
          "internalType": "address",
          "name": "_from",
          "type": "address"
        },
        {
          "indexed": true,
          "internalType": "address",
          "name": "_to",
          "type": "address"
        },
        {
          "indexed": false,
          "internalType": "uint256",
          "name": "_value",
          "type": "uint256"
        }
      ],
      "name": "Transfer",
      "type": "event"
    },
    {
      "anonymous": false,
      "inputs": [
        {
          "indexed": false,
          "internalType": "uint256",
          "name": "amount",
          "type": "uint256"
        },
        {
          "indexed": false,
          "internalType": "uint256",
          "name": "when",
          "type": "uint256"
        }
      ],
      "name": "Withdrawal",
      "type": "event"
    },
    {
      "inputs": [
        {
          "internalType": "address payable",
          "name": "user",
          "type": "address"
        }
      ],
      "name": "Claim",
      "outputs": [],
      "stateMutability": "payable",
      "type": "function"
    },
    {
      "inputs": [
        {
          "internalType": "address",
          "name": "user",
          "type": "address"
        }
      ],
      "name": "addWhitelist",
      "outputs": [],
      "stateMutability": "nonpayable",
      "type": "function"
    },
    {
      "inputs": [
        {
          "internalType": "address",
          "name": "account",
          "type": "address"
        }
      ],
      "name": "balanceOf",
      "outputs": [
        {
          "internalType": "uint256",
          "name": "",
          "type": "uint256"
        }
      ],
      "stateMutability": "view",
      "type": "function"
    },
    {
      "inputs": [],
      "name": "buyTokens",
      "outputs": [],
      "stateMutability": "payable",
      "type": "function"
    },
    {
      "inputs": [
        {
          "internalType": "address",
          "name": "_address",
          "type": "address"
        }
      ],
      "name": "checkInWhitelist",
      "outputs": [
        {
          "internalType": "bool",
          "name": "",
          "type": "bool"
        }
      ],
      "stateMutability": "view",
      "type": "function"
    },
    {
      "inputs": [
        {
          "internalType": "address",
          "name": "",
          "type": "address"
        }
      ],
      "name": "customersBalance",
      "outputs": [
        {
          "internalType": "uint256",
          "name": "",
          "type": "uint256"
        }
      ],
      "stateMutability": "view",
      "type": "function"
    },
    {
      "inputs": [],
      "name": "deadline",
      "outputs": [
        {
          "internalType": "uint256",
          "name": "",
          "type": "uint256"
        }
      ],
      "stateMutability": "view",
      "type": "function"
    },
    {
      "inputs": [],
      "name": "decimals",
      "outputs": [
        {
          "internalType": "uint256",
          "name": "",
          "type": "uint256"
        }
      ],
      "stateMutability": "view",
      "type": "function"
    },
    {
      "inputs": [],
      "name": "getBalance",
      "outputs": [
        {
          "internalType": "uint256",
          "name": "",
          "type": "uint256"
        }
      ],
      "stateMutability": "view",
      "type": "function"
    },
    {
      "inputs": [],
      "name": "name",
      "outputs": [
        {
          "internalType": "string",
          "name": "",
          "type": "string"
        }
      ],
      "stateMutability": "view",
      "type": "function"
    },
    {
      "inputs": [],
      "name": "owner",
      "outputs": [
        {
          "internalType": "address payable",
          "name": "",
          "type": "address"
        }
      ],
      "stateMutability": "view",
      "type": "function"
    },
    {
      "inputs": [],
      "name": "startline",
      "outputs": [
        {
          "internalType": "uint256",
          "name": "",
          "type": "uint256"
        }
      ],
      "stateMutability": "view",
      "type": "function"
    },
    {
      "inputs": [],
      "name": "symbol",
      "outputs": [
        {
          "internalType": "string",
          "name": "",
          "type": "string"
        }
      ],
      "stateMutability": "view",
      "type": "function"
    },
    {
      "inputs": [],
      "name": "totalStock",
      "outputs": [
        {
          "internalType": "uint256",
          "name": "",
          "type": "uint256"
        }
      ],
      "stateMutability": "view",
      "type": "function"
    },
    {
      "inputs": [],
      "name": "totalSupply",
      "outputs": [
        {
          "internalType": "uint256",
          "name": "",
          "type": "uint256"
        }
      ],
      "stateMutability": "view",
      "type": "function"
    },
    {
      "inputs": [
        {
          "internalType": "address",
          "name": "to",
          "type": "address"
        },
        {
          "internalType": "uint256",
          "name": "amount",
          "type": "uint256"
        }
      ],
      "name": "transfer",
      "outputs": [],
      "stateMutability": "nonpayable",
      "type": "function"
    },
    {
      "inputs": [],
      "name": "unlockTime",
      "outputs": [
        {
          "internalType": "uint256",
          "name": "",
          "type": "uint256"
        }
      ],
      "stateMutability": "view",
      "type": "function"
    },
    {
      "inputs": [
        {
          "internalType": "address",
          "name": "",
          "type": "address"
        }
      ],
      "name": "whitelist",
      "outputs": [
        {
          "internalType": "bool",
          "name": "",
          "type": "bool"
        }
      ],
      "stateMutability": "view",
      "type": "function"
    },
    {
      "inputs": [],
      "name": "withdraw",
      "outputs": [],
      "stateMutability": "nonpayable",
      "type": "function"
    }
  ],
  "bytecode": "0x60806040526364075f80600b556364101c47600c556040516200226538038062002265833981810160405281019062000039919062000218565b6040518060400160405280600781526020017f5a59746f6b656e00000000000000000000000000000000000000000000000000815250600290816200007f9190620004ba565b506040518060400160405280600381526020017f5a4954000000000000000000000000000000000000000000000000000000000081525060039081620000c69190620004ba565b506012600481905550600454600a620000e0919062000724565b612710620000ef919062000775565b60058190555033600160006101000a81548173ffffffffffffffffffffffffffffffffffffffff021916908373ffffffffffffffffffffffffffffffffffffffff160217905550600554600660003373ffffffffffffffffffffffffffffffffffffffff1673ffffffffffffffffffffffffffffffffffffffff16815260200190815260200160002081905550804210620001c1576040517f08c379a0000000000000000000000000000000000000000000000000000000008152600401620001b89062000847565b60405180910390fd5b806000819055506127106009819055505062000869565b600080fd5b6000819050919050565b620001f281620001dd565b8114620001fe57600080fd5b50565b6000815190506200021281620001e7565b92915050565b600060208284031215620002315762000230620001d8565b5b6000620002418482850162000201565b91505092915050565b600081519050919050565b7f4e487b7100000000000000000000000000000000000000000000000000000000600052604160045260246000fd5b7f4e487b7100000000000000000000000000000000000000000000000000000000600052602260045260246000fd5b60006002820490506001821680620002cc57607f821691505b602082108103620002e257620002e162000284565b5b50919050565b60008190508160005260206000209050919050565b60006020601f8301049050919050565b600082821b905092915050565b6000600883026200034c7fffffffffffffffffffffffffffffffffffffffffffffffffffffffffffffffff826200030d565b6200035886836200030d565b95508019841693508086168417925050509392505050565b6000819050919050565b60006200039b620003956200038f84620001dd565b62000370565b620001dd565b9050919050565b6000819050919050565b620003b7836200037a565b620003cf620003c682620003a2565b8484546200031a565b825550505050565b600090565b620003e6620003d7565b620003f3818484620003ac565b505050565b5b818110156200041b576200040f600082620003dc565b600181019050620003f9565b5050565b601f8211156200046a576200043481620002e8565b6200043f84620002fd565b810160208510156200044f578190505b620004676200045e85620002fd565b830182620003f8565b50505b505050565b600082821c905092915050565b60006200048f600019846008026200046f565b1980831691505092915050565b6000620004aa83836200047c565b9150826002028217905092915050565b620004c5826200024a565b67ffffffffffffffff811115620004e157620004e062000255565b5b620004ed8254620002b3565b620004fa8282856200041f565b600060209050601f8311600181146200053257600084156200051d578287015190505b6200052985826200049c565b86555062000599565b601f1984166200054286620002e8565b60005b828110156200056c5784890151825560018201915060208501945060208101905062000545565b868310156200058c578489015162000588601f8916826200047c565b8355505b6001600288020188555050505b505050505050565b7f4e487b7100000000000000000000000000000000000000000000000000000000600052601160045260246000fd5b60008160011c9050919050565b6000808291508390505b60018511156200062f57808604811115620006075762000606620005a1565b5b6001851615620006175780820291505b80810290506200062785620005d0565b9450620005e7565b94509492505050565b6000826200064a57600190506200071d565b816200065a57600090506200071d565b81600181146200067357600281146200067e57620006b4565b60019150506200071d565b60ff841115620006935762000692620005a1565b5b8360020a915084821115620006ad57620006ac620005a1565b5b506200071d565b5060208310610133831016604e8410600b8410161715620006ee5782820a905083811115620006e857620006e7620005a1565b5b6200071d565b620006fd8484846001620005dd565b92509050818404811115620007175762000716620005a1565b5b81810290505b9392505050565b60006200073182620001dd565b91506200073e83620001dd565b92506200076d7fffffffffffffffffffffffffffffffffffffffffffffffffffffffffffffffff848462000638565b905092915050565b60006200078282620001dd565b91506200078f83620001dd565b92508282026200079f81620001dd565b91508282048414831517620007b957620007b8620005a1565b5b5092915050565b600082825260208201905092915050565b7f556e6c6f636b2074696d652073686f756c6420626520696e207468652066757460008201527f7572650000000000000000000000000000000000000000000000000000000000602082015250565b60006200082f602383620007c0565b91506200083c82620007d1565b604082019050919050565b60006020820190508181036000830152620008628162000820565b9050919050565b6119ec80620008796000396000f3fe6080604052600436106101145760003560e01c8063612a590f116100a05780639b19251a116100645780639b19251a14610386578063a9059cbb146103c3578063b1a951da146103ec578063d0febe4c14610417578063f80f5dd51461042157610114565b8063612a590f146102795780636884ea58146102b657806370a08231146102f35780638da5cb5b1461033057806395d89b411461035b57610114565b80631ffe4cca116100e75780631ffe4cca146101b6578063251c1aa3146101e157806329dcb0cf1461020c578063313ce567146102375780633ccfd60b1461026257610114565b806306fdde03146101195780630c7ef9321461014457806312065fe01461016057806318160ddd1461018b575b600080fd5b34801561012557600080fd5b5061012e61044a565b60405161013b9190611156565b60405180910390f35b61015e600480360381019061015991906111db565b6104d8565b005b34801561016c57600080fd5b5061017561074a565b6040516101829190611221565b60405180910390f35b34801561019757600080fd5b506101a0610752565b6040516101ad9190611221565b60405180910390f35b3480156101c257600080fd5b506101cb610758565b6040516101d89190611221565b60405180910390f35b3480156101ed57600080fd5b506101f661075e565b6040516102039190611221565b60405180910390f35b34801561021857600080fd5b50610221610764565b60405161022e9190611221565b60405180910390f35b34801561024357600080fd5b5061024c61076a565b6040516102599190611221565b60405180910390f35b34801561026e57600080fd5b50610277610770565b005b34801561028557600080fd5b506102a0600480360381019061029b919061127a565b61090e565b6040516102ad9190611221565b60405180910390f35b3480156102c257600080fd5b506102dd60048036038101906102d8919061127a565b610926565b6040516102ea91906112c2565b60405180910390f35b3480156102ff57600080fd5b5061031a6004803603810190610315919061127a565b610993565b6040516103279190611221565b60405180910390f35b34801561033c57600080fd5b506103456109dc565b60405161035291906112ec565b60405180910390f35b34801561036757600080fd5b50610370610a02565b60405161037d9190611156565b60405180910390f35b34801561039257600080fd5b506103ad60048036038101906103a8919061127a565b610a90565b6040516103ba91906112c2565b60405180910390f35b3480156103cf57600080fd5b506103ea60048036038101906103e59190611333565b610ab0565b005b3480156103f857600080fd5b50610401610c47565b60405161040e9190611221565b60405180910390f35b61041f610c4d565b005b34801561042d57600080fd5b506104486004803603810190610443919061127a565b610e3d565b005b60028054610457906113a2565b80601f0160208091040260200160405190810160405280929190818152602001828054610483906113a2565b80156104d05780601f106104a5576101008083540402835291602001916104d0565b820191906000526020600020905b8154815290600101906020018083116104b357829003601f168201915b505050505081565b600760003373ffffffffffffffffffffffffffffffffffffffff1673ffffffffffffffffffffffffffffffffffffffff16815260200190815260200160002060009054906101000a900460ff16610564576040517f08c379a000000000000000000000000000000000000000000000000000000000815260040161055b90611445565b60405180910390fd5b6000600660003373ffffffffffffffffffffffffffffffffffffffff1673ffffffffffffffffffffffffffffffffffffffff16815260200190815260200160002054116105e6576040517f08c379a00000000000000000000000000000000000000000000000000000000081526004016105dd906114b1565b60405180910390fd5b6000600954600a54600660003373ffffffffffffffffffffffffffffffffffffffff1673ffffffffffffffffffffffffffffffffffffffff16815260200190815260200160002054610638919061152f565b6106429190611560565b90508173ffffffffffffffffffffffffffffffffffffffff166108fc829081150290604051600060405180830381858888f1935050505015801561068a573d6000803e3d6000fd5b508060066000600160009054906101000a900473ffffffffffffffffffffffffffffffffffffffff1673ffffffffffffffffffffffffffffffffffffffff1673ffffffffffffffffffffffffffffffffffffffff16815260200190815260200160002060008282546106fc91906115a2565b92505081905550600660003373ffffffffffffffffffffffffffffffffffffffff1673ffffffffffffffffffffffffffffffffffffffff168152602001908152602001600020600090555050565b600047905090565b60055481565b600b5481565b60005481565b600c5481565b60045481565b6107956040518060600160405280602b815260200161198c602b913960005442610ffe565b6000544210156107da576040517f08c379a00000000000000000000000000000000000000000000000000000000081526004016107d190611622565b60405180910390fd5b600160009054906101000a900473ffffffffffffffffffffffffffffffffffffffff1673ffffffffffffffffffffffffffffffffffffffff163373ffffffffffffffffffffffffffffffffffffffff161461086a576040517f08c379a00000000000000000000000000000000000000000000000000000000081526004016108619061168e565b60405180910390fd5b7fbf2ed60bd5b5965d685680c01195c9514e4382e28e3a5a2d2d5244bf59411b93474260405161089b9291906116ae565b60405180910390a1600160009054906101000a900473ffffffffffffffffffffffffffffffffffffffff1673ffffffffffffffffffffffffffffffffffffffff166108fc479081150290604051600060405180830381858888f1935050505015801561090b573d6000803e3d6000fd5b50565b60066020528060005260406000206000915090505481565b600060011515600760008473ffffffffffffffffffffffffffffffffffffffff1673ffffffffffffffffffffffffffffffffffffffff16815260200190815260200160002060009054906101000a900460ff16151503610989576001905061098e565b600090505b919050565b6000600860008373ffffffffffffffffffffffffffffffffffffffff1673ffffffffffffffffffffffffffffffffffffffff168152602001908152602001600020549050919050565b600160009054906101000a900473ffffffffffffffffffffffffffffffffffffffff1681565b60038054610a0f906113a2565b80601f0160208091040260200160405190810160405280929190818152602001828054610a3b906113a2565b8015610a885780601f10610a5d57610100808354040283529160200191610a88565b820191906000526020600020905b815481529060010190602001808311610a6b57829003601f168201915b505050505081565b60076020528060005260406000206000915054906101000a900460ff1681565b80600860003373ffffffffffffffffffffffffffffffffffffffff1673ffffffffffffffffffffffffffffffffffffffff168152602001908152602001600020541015610b32576040517f08c379a0000000000000000000000000000000000000000000000000000000008152600401610b2990611723565b60405180910390fd5b80600860003373ffffffffffffffffffffffffffffffffffffffff1673ffffffffffffffffffffffffffffffffffffffff1681526020019081526020016000206000828254610b8191906115a2565b9250508190555080600860008473ffffffffffffffffffffffffffffffffffffffff1673ffffffffffffffffffffffffffffffffffffffff1681526020019081526020016000206000828254610bd79190611743565b925050819055508173ffffffffffffffffffffffffffffffffffffffff163373ffffffffffffffffffffffffffffffffffffffff167fddf252ad1be2c89b69c2b068fc378daa952ba7f163c4a11628f55a4df523b3ef83604051610c3b9190611221565b60405180910390a35050565b600a5481565b600b54421115610c92576040517f08c379a0000000000000000000000000000000000000000000000000000000008152600401610c89906117c3565b60405180910390fd5b600c54421115610cd7576040517f08c379a0000000000000000000000000000000000000000000000000000000008152600401610cce9061182f565b60405180910390fd5b600760003373ffffffffffffffffffffffffffffffffffffffff1673ffffffffffffffffffffffffffffffffffffffff16815260200190815260200160002060009054906101000a900460ff16610d63576040517f08c379a0000000000000000000000000000000000000000000000000000000008152600401610d5a906118c1565b60405180910390fd5b34600a6000828254610d759190611743565b9250508190555034600660003373ffffffffffffffffffffffffffffffffffffffff1673ffffffffffffffffffffffffffffffffffffffff1681526020019081526020016000206000828254610dcb9190611743565b92505081905550600160009054906101000a900473ffffffffffffffffffffffffffffffffffffffff1673ffffffffffffffffffffffffffffffffffffffff166108fc349081150290604051600060405180830381858888f19350505050158015610e3a573d6000803e3d6000fd5b50565b600160009054906101000a900473ffffffffffffffffffffffffffffffffffffffff1673ffffffffffffffffffffffffffffffffffffffff163373ffffffffffffffffffffffffffffffffffffffff1614610ecd576040517f08c379a0000000000000000000000000000000000000000000000000000000008152600401610ec490611445565b60405180910390fd5b60011515600760008373ffffffffffffffffffffffffffffffffffffffff1673ffffffffffffffffffffffffffffffffffffffff16815260200190815260200160002060009054906101000a900460ff16151514610f60576040517f08c379a0000000000000000000000000000000000000000000000000000000008152600401610f579061192d565b60405180910390fd5b8073ffffffffffffffffffffffffffffffffffffffff167fa850ae9193f515cbae8d35e8925bd2be26627fc91bce650b8652ed254e9cab0360405160405180910390a26001600760008373ffffffffffffffffffffffffffffffffffffffff1673ffffffffffffffffffffffffffffffffffffffff16815260200190815260200160002060006101000a81548160ff02191690831515021790555050565b6110988383836040516024016110169392919061194d565b6040516020818303038152906040527fca47c4eb000000000000000000000000000000000000000000000000000000007bffffffffffffffffffffffffffffffffffffffffffffffffffffffff19166020820180517bffffffffffffffffffffffffffffffffffffffffffffffffffffffff838183161783525050505061109d565b505050565b60008151905060006a636f6e736f6c652e6c6f679050602083016000808483855afa5050505050565b600081519050919050565b600082825260208201905092915050565b60005b838110156111005780820151818401526020810190506110e5565b60008484015250505050565b6000601f19601f8301169050919050565b6000611128826110c6565b61113281856110d1565b93506111428185602086016110e2565b61114b8161110c565b840191505092915050565b60006020820190508181036000830152611170818461111d565b905092915050565b600080fd5b600073ffffffffffffffffffffffffffffffffffffffff82169050919050565b60006111a88261117d565b9050919050565b6111b88161119d565b81146111c357600080fd5b50565b6000813590506111d5816111af565b92915050565b6000602082840312156111f1576111f0611178565b5b60006111ff848285016111c6565b91505092915050565b6000819050919050565b61121b81611208565b82525050565b60006020820190506112366000830184611212565b92915050565b60006112478261117d565b9050919050565b6112578161123c565b811461126257600080fd5b50565b6000813590506112748161124e565b92915050565b6000602082840312156112905761128f611178565b5b600061129e84828501611265565b91505092915050565b60008115159050919050565b6112bc816112a7565b82525050565b60006020820190506112d760008301846112b3565b92915050565b6112e68161119d565b82525050565b600060208201905061130160008301846112dd565b92915050565b61131081611208565b811461131b57600080fd5b50565b60008135905061132d81611307565b92915050565b6000806040838503121561134a57611349611178565b5b600061135885828601611265565b92505060206113698582860161131e565b9150509250929050565b7f4e487b7100000000000000000000000000000000000000000000000000000000600052602260045260246000fd5b600060028204905060018216806113ba57607f821691505b6020821081036113cd576113cc611373565b5b50919050565b7f4f6e6c7920636f6e7472616374206f776e65722063616e2061646420746f207760008201527f686974656c697374000000000000000000000000000000000000000000000000602082015250565b600061142f6028836110d1565b915061143a826113d3565b604082019050919050565b6000602082019050818103600083015261145e81611422565b9050919050565b7f416c7265616479207472616e7366657272656400000000000000000000000000600082015250565b600061149b6013836110d1565b91506114a682611465565b602082019050919050565b600060208201905081810360008301526114ca8161148e565b9050919050565b7f4e487b7100000000000000000000000000000000000000000000000000000000600052601260045260246000fd5b7f4e487b7100000000000000000000000000000000000000000000000000000000600052601160045260246000fd5b600061153a82611208565b915061154583611208565b925082611555576115546114d1565b5b828204905092915050565b600061156b82611208565b915061157683611208565b925082820261158481611208565b9150828204841483151761159b5761159a611500565b5b5092915050565b60006115ad82611208565b91506115b883611208565b92508282039050818111156115d0576115cf611500565b5b92915050565b7f596f752063616e27742077697468647261772079657400000000000000000000600082015250565b600061160c6016836110d1565b9150611617826115d6565b602082019050919050565b6000602082019050818103600083015261163b816115ff565b9050919050565b7f596f75206172656e277420746865206f776e6572000000000000000000000000600082015250565b60006116786014836110d1565b915061168382611642565b602082019050919050565b600060208201905081810360008301526116a78161166b565b9050919050565b60006040820190506116c36000830185611212565b6116d06020830184611212565b9392505050565b7f4e6f7420656e6f75676820746f6b656e73000000000000000000000000000000600082015250565b600061170d6011836110d1565b9150611718826116d7565b602082019050919050565b6000602082019050818103600083015261173c81611700565b9050919050565b600061174e82611208565b915061175983611208565b925082820190508082111561177157611770611500565b5b92915050565b7f43726f776473616c65206e6f7420737461727465642079657420000000000000600082015250565b60006117ad601a836110d1565b91506117b882611777565b602082019050919050565b600060208201905081810360008301526117dc816117a0565b9050919050565b7f43726f776473616c652068617320656e64656400000000000000000000000000600082015250565b60006118196013836110d1565b9150611824826117e3565b602082019050919050565b600060208201905081810360008301526118488161180c565b9050919050565b7f4f6e6c792077686974656c69737465642075736572732063616e20707572636860008201527f61736520746f6b656e7300000000000000000000000000000000000000000000602082015250565b60006118ab602a836110d1565b91506118b68261184f565b604082019050919050565b600060208201905081810360008301526118da8161189e565b9050919050565b7f416c726561647920616464656420746869732061646472657373000000000000600082015250565b6000611917601a836110d1565b9150611922826118e1565b602082019050919050565b600060208201905081810360008301526119468161190a565b9050919050565b60006060820190508181036000830152611967818661111d565b90506119766020830185611212565b6119836040830184611212565b94935050505056fe556e6c6f636b2074696d6520697320256f20616e6420626c6f636b2074696d657374616d7020697320256fa2646970667358221220f4e111e0a0597cb36f5d8ed44bb593114e73bfe49e1b332016b535b42d55973164736f6c63430008120033",
  "linkReferences": {},
  "deployedLinkReferences": {}
}