{
  "_format": "hh-sol-artifact-1",
  "contractName": "Lock",
  "sourceName": "contracts/Lock.sol",
  "abi": [
    {
      "inputs": [
        {
          "internalType": "uint256",
          "name": "_unlockTime",
          "type": "uint256"
        }
      ],
      "stateMutability": "payable",
      "type": "constructor"
    },
    {
      "anonymous": false,
      "inputs": [
        {
          "indexed": true,
          "internalType": "address",
          "name": "account",
          "type": "address"
        }
      ],
      "name": "AddedToWhitelist",
      "type": "event"
    },
    {
      "anonymous": false,
      "inputs": [
        {
          "indexed": true,
          "internalType": "address",
          "name": "from",
          "type": "address"
        },
        {
          "indexed": true,
          "internalType": "address",
          "name": "to",
          "type": "address"
        },
        {
          "indexed": false,
          "internalType": "uint256",
          "name": "value",
          "type": "uint256"
        }
      ],
      "name": "Crowdsale",
      "type": "event"
    },
    {
      "anonymous": false,
      "inputs": [
        {
          "indexed": true,
          "internalType": "address",
          "name": "_from",
          "type": "address"
        },
        {
          "indexed": true,
          "internalType": "address",
          "name": "_to",
          "type": "address"
        },
        {
          "indexed": false,
          "internalType": "uint256",
          "name": "_value",
          "type": "uint256"
        }
      ],
      "name": "Transfer",
      "type": "event"
    },
    {
      "anonymous": false,
      "inputs": [
        {
          "indexed": false,
          "internalType": "uint256",
          "name": "amount",
          "type": "uint256"
        },
        {
          "indexed": false,
          "internalType": "uint256",
          "name": "when",
          "type": "uint256"
        }
      ],
      "name": "Withdrawal",
      "type": "event"
    },
    {
      "inputs": [
        {
          "internalType": "address payable",
          "name": "user",
          "type": "address"
        }
      ],
      "name": "Claim",
      "outputs": [],
      "stateMutability": "payable",
      "type": "function"
    },
    {
      "inputs": [
        {
          "internalType": "address",
          "name": "user",
          "type": "address"
        }
      ],
      "name": "addWhitelist",
      "outputs": [],
      "stateMutability": "nonpayable",
      "type": "function"
    },
    {
      "inputs": [
        {
          "internalType": "address",
          "name": "account",
          "type": "address"
        }
      ],
      "name": "balanceOf",
      "outputs": [
        {
          "internalType": "uint256",
          "name": "",
          "type": "uint256"
        }
      ],
      "stateMutability": "view",
      "type": "function"
    },
    {
      "inputs": [],
      "name": "buyTokens",
      "outputs": [],
      "stateMutability": "payable",
      "type": "function"
    },
    {
      "inputs": [
        {
          "internalType": "address",
          "name": "_address",
          "type": "address"
        }
      ],
      "name": "checkInWhitelist",
      "outputs": [
        {
          "internalType": "bool",
          "name": "",
          "type": "bool"
        }
      ],
      "stateMutability": "view",
      "type": "function"
    },
    {
      "inputs": [
        {
          "internalType": "address",
          "name": "",
          "type": "address"
        }
      ],
      "name": "customersBalance",
      "outputs": [
        {
          "internalType": "uint256",
          "name": "",
          "type": "uint256"
        }
      ],
      "stateMutability": "view",
      "type": "function"
    },
    {
      "inputs": [],
      "name": "deadline",
      "outputs": [
        {
          "internalType": "uint256",
          "name": "",
          "type": "uint256"
        }
      ],
      "stateMutability": "view",
      "type": "function"
    },
    {
      "inputs": [],
      "name": "decimals",
      "outputs": [
        {
          "internalType": "uint256",
          "name": "",
          "type": "uint256"
        }
      ],
      "stateMutability": "view",
      "type": "function"
    },
    {
      "inputs": [],
      "name": "getBalance",
      "outputs": [
        {
          "internalType": "uint256",
          "name": "",
          "type": "uint256"
        }
      ],
      "stateMutability": "view",
      "type": "function"
    },
    {
      "inputs": [],
      "name": "name",
      "outputs": [
        {
          "internalType": "string",
          "name": "",
          "type": "string"
        }
      ],
      "stateMutability": "view",
      "type": "function"
    },
    {
      "inputs": [],
      "name": "owner",
      "outputs": [
        {
          "internalType": "address payable",
          "name": "",
          "type": "address"
        }
      ],
      "stateMutability": "view",
      "type": "function"
    },
    {
      "inputs": [],
      "name": "startline",
      "outputs": [
        {
          "internalType": "uint256",
          "name": "",
          "type": "uint256"
        }
      ],
      "stateMutability": "view",
      "type": "function"
    },
    {
      "inputs": [],
      "name": "symbol",
      "outputs": [
        {
          "internalType": "string",
          "name": "",
          "type": "string"
        }
      ],
      "stateMutability": "view",
      "type": "function"
    },
    {
      "inputs": [],
      "name": "totalStock",
      "outputs": [
        {
          "internalType": "uint256",
          "name": "",
          "type": "uint256"
        }
      ],
      "stateMutability": "view",
      "type": "function"
    },
    {
      "inputs": [],
      "name": "totalSupply",
      "outputs": [
        {
          "internalType": "uint256",
          "name": "",
          "type": "uint256"
        }
      ],
      "stateMutability": "view",
      "type": "function"
    },
    {
      "inputs": [
        {
          "internalType": "address",
          "name": "to",
          "type": "address"
        },
        {
          "internalType": "uint256",
          "name": "amount",
          "type": "uint256"
        }
      ],
      "name": "transfer",
      "outputs": [],
      "stateMutability": "nonpayable",
      "type": "function"
    },
    {
      "inputs": [],
      "name": "unlockTime",
      "outputs": [
        {
          "internalType": "uint256",
          "name": "",
          "type": "uint256"
        }
      ],
      "stateMutability": "view",
      "type": "function"
    },
    {
      "inputs": [
        {
          "internalType": "address",
          "name": "",
          "type": "address"
        }
      ],
      "name": "whitelist",
      "outputs": [
        {
          "internalType": "bool",
          "name": "",
          "type": "bool"
        }
      ],
      "stateMutability": "view",
      "type": "function"
    },
    {
      "inputs": [],
      "name": "withdraw",
      "outputs": [],
      "stateMutability": "nonpayable",
      "type": "function"
    }
  ],
  "bytecode": "0x60806040526364075f80600b556364101c47600c556040516200210f3803806200210f833981810160405281019062000039919062000218565b6040518060400160405280600781526020017f5a59746f6b656e00000000000000000000000000000000000000000000000000815250600290816200007f9190620004ba565b506040518060400160405280600381526020017f5a4954000000000000000000000000000000000000000000000000000000000081525060039081620000c69190620004ba565b506012600481905550600454600a620000e0919062000724565b612710620000ef919062000775565b60058190555033600160006101000a81548173ffffffffffffffffffffffffffffffffffffffff021916908373ffffffffffffffffffffffffffffffffffffffff160217905550600554600660003373ffffffffffffffffffffffffffffffffffffffff1673ffffffffffffffffffffffffffffffffffffffff16815260200190815260200160002081905550804210620001c1576040517f08c379a0000000000000000000000000000000000000000000000000000000008152600401620001b89062000847565b60405180910390fd5b806000819055506127106009819055505062000869565b600080fd5b6000819050919050565b620001f281620001dd565b8114620001fe57600080fd5b50565b6000815190506200021281620001e7565b92915050565b600060208284031215620002315762000230620001d8565b5b6000620002418482850162000201565b91505092915050565b600081519050919050565b7f4e487b7100000000000000000000000000000000000000000000000000000000600052604160045260246000fd5b7f4e487b7100000000000000000000000000000000000000000000000000000000600052602260045260246000fd5b60006002820490506001821680620002cc57607f821691505b602082108103620002e257620002e162000284565b5b50919050565b60008190508160005260206000209050919050565b60006020601f8301049050919050565b600082821b905092915050565b6000600883026200034c7fffffffffffffffffffffffffffffffffffffffffffffffffffffffffffffffff826200030d565b6200035886836200030d565b95508019841693508086168417925050509392505050565b6000819050919050565b60006200039b620003956200038f84620001dd565b62000370565b620001dd565b9050919050565b6000819050919050565b620003b7836200037a565b620003cf620003c682620003a2565b8484546200031a565b825550505050565b600090565b620003e6620003d7565b620003f3818484620003ac565b505050565b5b818110156200041b576200040f600082620003dc565b600181019050620003f9565b5050565b601f8211156200046a576200043481620002e8565b6200043f84620002fd565b810160208510156200044f578190505b620004676200045e85620002fd565b830182620003f8565b50505b505050565b600082821c905092915050565b60006200048f600019846008026200046f565b1980831691505092915050565b6000620004aa83836200047c565b9150826002028217905092915050565b620004c5826200024a565b67ffffffffffffffff811115620004e157620004e062000255565b5b620004ed8254620002b3565b620004fa8282856200041f565b600060209050601f8311600181146200053257600084156200051d578287015190505b6200052985826200049c565b86555062000599565b601f1984166200054286620002e8565b60005b828110156200056c5784890151825560018201915060208501945060208101905062000545565b868310156200058c578489015162000588601f8916826200047c565b8355505b6001600288020188555050505b505050505050565b7f4e487b7100000000000000000000000000000000000000000000000000000000600052601160045260246000fd5b60008160011c9050919050565b6000808291508390505b60018511156200062f57808604811115620006075762000606620005a1565b5b6001851615620006175780820291505b80810290506200062785620005d0565b9450620005e7565b94509492505050565b6000826200064a57600190506200071d565b816200065a57600090506200071d565b81600181146200067357600281146200067e57620006b4565b60019150506200071d565b60ff841115620006935762000692620005a1565b5b8360020a915084821115620006ad57620006ac620005a1565b5b506200071d565b5060208310610133831016604e8410600b8410161715620006ee5782820a905083811115620006e857620006e7620005a1565b5b6200071d565b620006fd8484846001620005dd565b92509050818404811115620007175762000716620005a1565b5b81810290505b9392505050565b60006200073182620001dd565b91506200073e83620001dd565b92506200076d7fffffffffffffffffffffffffffffffffffffffffffffffffffffffffffffffff848462000638565b905092915050565b60006200078282620001dd565b91506200078f83620001dd565b92508282026200079f81620001dd565b91508282048414831517620007b957620007b8620005a1565b5b5092915050565b600082825260208201905092915050565b7f556e6c6f636b2074696d652073686f756c6420626520696e207468652066757460008201527f7572650000000000000000000000000000000000000000000000000000000000602082015250565b60006200082f602383620007c0565b91506200083c82620007d1565b604082019050919050565b60006020820190508181036000830152620008628162000820565b9050919050565b61189680620008796000396000f3fe6080604052600436106101145760003560e01c8063612a590f116100a05780639b19251a116100645780639b19251a14610386578063a9059cbb146103c3578063b1a951da146103ec578063d0febe4c14610417578063f80f5dd51461042157610114565b8063612a590f146102795780636884ea58146102b657806370a08231146102f35780638da5cb5b1461033057806395d89b411461035b57610114565b80631ffe4cca116100e75780631ffe4cca146101b6578063251c1aa3146101e157806329dcb0cf1461020c578063313ce567146102375780633ccfd60b1461026257610114565b806306fdde03146101195780630c7ef9321461014457806312065fe01461016057806318160ddd1461018b575b600080fd5b34801561012557600080fd5b5061012e61044a565b60405161013b9190611069565b60405180910390f35b61015e600480360381019061015991906110ee565b6104d8565b005b34801561016c57600080fd5b5061017561074a565b6040516101829190611134565b60405180910390f35b34801561019757600080fd5b506101a0610752565b6040516101ad9190611134565b60405180910390f35b3480156101c257600080fd5b506101cb610758565b6040516101d89190611134565b60405180910390f35b3480156101ed57600080fd5b506101f661075e565b6040516102039190611134565b60405180910390f35b34801561021857600080fd5b50610221610764565b60405161022e9190611134565b60405180910390f35b34801561024357600080fd5b5061024c61076a565b6040516102599190611134565b60405180910390f35b34801561026e57600080fd5b50610277610770565b005b34801561028557600080fd5b506102a0600480360381019061029b919061118d565b6108e9565b6040516102ad9190611134565b60405180910390f35b3480156102c257600080fd5b506102dd60048036038101906102d8919061118d565b610901565b6040516102ea91906111d5565b60405180910390f35b3480156102ff57600080fd5b5061031a6004803603810190610315919061118d565b61096e565b6040516103279190611134565b60405180910390f35b34801561033c57600080fd5b506103456109b7565b60405161035291906111ff565b60405180910390f35b34801561036757600080fd5b506103706109dd565b60405161037d9190611069565b60405180910390f35b34801561039257600080fd5b506103ad60048036038101906103a8919061118d565b610a6b565b6040516103ba91906111d5565b60405180910390f35b3480156103cf57600080fd5b506103ea60048036038101906103e59190611246565b610a8b565b005b3480156103f857600080fd5b50610401610c22565b60405161040e9190611134565b60405180910390f35b61041f610c28565b005b34801561042d57600080fd5b506104486004803603810190610443919061118d565b610e18565b005b60028054610457906112b5565b80601f0160208091040260200160405190810160405280929190818152602001828054610483906112b5565b80156104d05780601f106104a5576101008083540402835291602001916104d0565b820191906000526020600020905b8154815290600101906020018083116104b357829003601f168201915b505050505081565b600760003373ffffffffffffffffffffffffffffffffffffffff1673ffffffffffffffffffffffffffffffffffffffff16815260200190815260200160002060009054906101000a900460ff16610564576040517f08c379a000000000000000000000000000000000000000000000000000000000815260040161055b90611358565b60405180910390fd5b6000600660003373ffffffffffffffffffffffffffffffffffffffff1673ffffffffffffffffffffffffffffffffffffffff16815260200190815260200160002054116105e6576040517f08c379a00000000000000000000000000000000000000000000000000000000081526004016105dd906113c4565b60405180910390fd5b6000600954600a54600660003373ffffffffffffffffffffffffffffffffffffffff1673ffffffffffffffffffffffffffffffffffffffff168152602001908152602001600020546106389190611442565b6106429190611473565b90508173ffffffffffffffffffffffffffffffffffffffff166108fc829081150290604051600060405180830381858888f1935050505015801561068a573d6000803e3d6000fd5b508060066000600160009054906101000a900473ffffffffffffffffffffffffffffffffffffffff1673ffffffffffffffffffffffffffffffffffffffff1673ffffffffffffffffffffffffffffffffffffffff16815260200190815260200160002060008282546106fc91906114b5565b92505081905550600660003373ffffffffffffffffffffffffffffffffffffffff1673ffffffffffffffffffffffffffffffffffffffff168152602001908152602001600020600090555050565b600047905090565b60055481565b600b5481565b60005481565b600c5481565b60045481565b6000544210156107b5576040517f08c379a00000000000000000000000000000000000000000000000000000000081526004016107ac90611535565b60405180910390fd5b600160009054906101000a900473ffffffffffffffffffffffffffffffffffffffff1673ffffffffffffffffffffffffffffffffffffffff163373ffffffffffffffffffffffffffffffffffffffff1614610845576040517f08c379a000000000000000000000000000000000000000000000000000000000815260040161083c906115a1565b60405180910390fd5b7fbf2ed60bd5b5965d685680c01195c9514e4382e28e3a5a2d2d5244bf59411b9347426040516108769291906115c1565b60405180910390a1600160009054906101000a900473ffffffffffffffffffffffffffffffffffffffff1673ffffffffffffffffffffffffffffffffffffffff166108fc479081150290604051600060405180830381858888f193505050501580156108e6573d6000803e3d6000fd5b50565b60066020528060005260406000206000915090505481565b600060011515600760008473ffffffffffffffffffffffffffffffffffffffff1673ffffffffffffffffffffffffffffffffffffffff16815260200190815260200160002060009054906101000a900460ff161515036109645760019050610969565b600090505b919050565b6000600860008373ffffffffffffffffffffffffffffffffffffffff1673ffffffffffffffffffffffffffffffffffffffff168152602001908152602001600020549050919050565b600160009054906101000a900473ffffffffffffffffffffffffffffffffffffffff1681565b600380546109ea906112b5565b80601f0160208091040260200160405190810160405280929190818152602001828054610a16906112b5565b8015610a635780601f10610a3857610100808354040283529160200191610a63565b820191906000526020600020905b815481529060010190602001808311610a4657829003601f168201915b505050505081565b60076020528060005260406000206000915054906101000a900460ff1681565b80600860003373ffffffffffffffffffffffffffffffffffffffff1673ffffffffffffffffffffffffffffffffffffffff168152602001908152602001600020541015610b0d576040517f08c379a0000000000000000000000000000000000000000000000000000000008152600401610b0490611636565b60405180910390fd5b80600860003373ffffffffffffffffffffffffffffffffffffffff1673ffffffffffffffffffffffffffffffffffffffff1681526020019081526020016000206000828254610b5c91906114b5565b9250508190555080600860008473ffffffffffffffffffffffffffffffffffffffff1673ffffffffffffffffffffffffffffffffffffffff1681526020019081526020016000206000828254610bb29190611656565b925050819055508173ffffffffffffffffffffffffffffffffffffffff163373ffffffffffffffffffffffffffffffffffffffff167fddf252ad1be2c89b69c2b068fc378daa952ba7f163c4a11628f55a4df523b3ef83604051610c169190611134565b60405180910390a35050565b600a5481565b600b54421115610c6d576040517f08c379a0000000000000000000000000000000000000000000000000000000008152600401610c64906116d6565b60405180910390fd5b600c54421115610cb2576040517f08c379a0000000000000000000000000000000000000000000000000000000008152600401610ca990611742565b60405180910390fd5b600760003373ffffffffffffffffffffffffffffffffffffffff1673ffffffffffffffffffffffffffffffffffffffff16815260200190815260200160002060009054906101000a900460ff16610d3e576040517f08c379a0000000000000000000000000000000000000000000000000000000008152600401610d35906117d4565b60405180910390fd5b34600a6000828254610d509190611656565b9250508190555034600660003373ffffffffffffffffffffffffffffffffffffffff1673ffffffffffffffffffffffffffffffffffffffff1681526020019081526020016000206000828254610da69190611656565b92505081905550600160009054906101000a900473ffffffffffffffffffffffffffffffffffffffff1673ffffffffffffffffffffffffffffffffffffffff166108fc349081150290604051600060405180830381858888f19350505050158015610e15573d6000803e3d6000fd5b50565b600160009054906101000a900473ffffffffffffffffffffffffffffffffffffffff1673ffffffffffffffffffffffffffffffffffffffff163373ffffffffffffffffffffffffffffffffffffffff1614610ea8576040517f08c379a0000000000000000000000000000000000000000000000000000000008152600401610e9f90611358565b60405180910390fd5b60011515600760008373ffffffffffffffffffffffffffffffffffffffff1673ffffffffffffffffffffffffffffffffffffffff16815260200190815260200160002060009054906101000a900460ff16151514610f3b576040517f08c379a0000000000000000000000000000000000000000000000000000000008152600401610f3290611840565b60405180910390fd5b8073ffffffffffffffffffffffffffffffffffffffff167fa850ae9193f515cbae8d35e8925bd2be26627fc91bce650b8652ed254e9cab0360405160405180910390a26001600760008373ffffffffffffffffffffffffffffffffffffffff1673ffffffffffffffffffffffffffffffffffffffff16815260200190815260200160002060006101000a81548160ff02191690831515021790555050565b600081519050919050565b600082825260208201905092915050565b60005b83811015611013578082015181840152602081019050610ff8565b60008484015250505050565b6000601f19601f8301169050919050565b600061103b82610fd9565b6110458185610fe4565b9350611055818560208601610ff5565b61105e8161101f565b840191505092915050565b600060208201905081810360008301526110838184611030565b905092915050565b600080fd5b600073ffffffffffffffffffffffffffffffffffffffff82169050919050565b60006110bb82611090565b9050919050565b6110cb816110b0565b81146110d657600080fd5b50565b6000813590506110e8816110c2565b92915050565b6000602082840312156111045761110361108b565b5b6000611112848285016110d9565b91505092915050565b6000819050919050565b61112e8161111b565b82525050565b60006020820190506111496000830184611125565b92915050565b600061115a82611090565b9050919050565b61116a8161114f565b811461117557600080fd5b50565b60008135905061118781611161565b92915050565b6000602082840312156111a3576111a261108b565b5b60006111b184828501611178565b91505092915050565b60008115159050919050565b6111cf816111ba565b82525050565b60006020820190506111ea60008301846111c6565b92915050565b6111f9816110b0565b82525050565b600060208201905061121460008301846111f0565b92915050565b6112238161111b565b811461122e57600080fd5b50565b6000813590506112408161121a565b92915050565b6000806040838503121561125d5761125c61108b565b5b600061126b85828601611178565b925050602061127c85828601611231565b9150509250929050565b7f4e487b7100000000000000000000000000000000000000000000000000000000600052602260045260246000fd5b600060028204905060018216806112cd57607f821691505b6020821081036112e0576112df611286565b5b50919050565b7f4f6e6c7920636f6e7472616374206f776e65722063616e2061646420746f207760008201527f686974656c697374000000000000000000000000000000000000000000000000602082015250565b6000611342602883610fe4565b915061134d826112e6565b604082019050919050565b6000602082019050818103600083015261137181611335565b9050919050565b7f416c7265616479207472616e7366657272656400000000000000000000000000600082015250565b60006113ae601383610fe4565b91506113b982611378565b602082019050919050565b600060208201905081810360008301526113dd816113a1565b9050919050565b7f4e487b7100000000000000000000000000000000000000000000000000000000600052601260045260246000fd5b7f4e487b7100000000000000000000000000000000000000000000000000000000600052601160045260246000fd5b600061144d8261111b565b91506114588361111b565b925082611468576114676113e4565b5b828204905092915050565b600061147e8261111b565b91506114898361111b565b92508282026114978161111b565b915082820484148315176114ae576114ad611413565b5b5092915050565b60006114c08261111b565b91506114cb8361111b565b92508282039050818111156114e3576114e2611413565b5b92915050565b7f596f752063616e27742077697468647261772079657400000000000000000000600082015250565b600061151f601683610fe4565b915061152a826114e9565b602082019050919050565b6000602082019050818103600083015261154e81611512565b9050919050565b7f596f75206172656e277420746865206f776e6572000000000000000000000000600082015250565b600061158b601483610fe4565b915061159682611555565b602082019050919050565b600060208201905081810360008301526115ba8161157e565b9050919050565b60006040820190506115d66000830185611125565b6115e36020830184611125565b9392505050565b7f4e6f7420656e6f75676820746f6b656e73000000000000000000000000000000600082015250565b6000611620601183610fe4565b915061162b826115ea565b602082019050919050565b6000602082019050818103600083015261164f81611613565b9050919050565b60006116618261111b565b915061166c8361111b565b925082820190508082111561168457611683611413565b5b92915050565b7f43726f776473616c65206e6f7420737461727465642079657420000000000000600082015250565b60006116c0601a83610fe4565b91506116cb8261168a565b602082019050919050565b600060208201905081810360008301526116ef816116b3565b9050919050565b7f43726f776473616c652068617320656e64656400000000000000000000000000600082015250565b600061172c601383610fe4565b9150611737826116f6565b602082019050919050565b6000602082019050818103600083015261175b8161171f565b9050919050565b7f4f6e6c792077686974656c69737465642075736572732063616e20707572636860008201527f61736520746f6b656e7300000000000000000000000000000000000000000000602082015250565b60006117be602a83610fe4565b91506117c982611762565b604082019050919050565b600060208201905081810360008301526117ed816117b1565b9050919050565b7f416c726561647920616464656420746869732061646472657373000000000000600082015250565b600061182a601a83610fe4565b9150611835826117f4565b602082019050919050565b600060208201905081810360008301526118598161181d565b905091905056fea264697066735822122048bffd0cdb6cf46894c5a9a71bd3000f916e8840d111b137c97be9609232fd9764736f6c63430008130033",
  "linkReferences": {},
  "deployedLinkReferences": {}
}