{
  "_format": "hh-sol-artifact-1",
  "contractName": "MyToken",
  "sourceName": "contracts/MyToken.sol",
  "abi": [
    {
      "inputs": [
        {
          "internalType": "string",
          "name": "name",
          "type": "string"
        },
        {
          "internalType": "string",
          "name": "symbol",
          "type": "string"
        }
      ],
      "stateMutability": "nonpayable",
      "type": "constructor"
    },
    {
      "anonymous": false,
      "inputs": [
        {
          "indexed": true,
          "internalType": "address",
          "name": "owner",
          "type": "address"
        },
        {
          "indexed": true,
          "internalType": "address",
          "name": "spender",
          "type": "address"
        },
        {
          "indexed": false,
          "internalType": "uint256",
          "name": "value",
          "type": "uint256"
        }
      ],
      "name": "Approval",
      "type": "event"
    },
    {
      "anonymous": false,
      "inputs": [
        {
          "indexed": true,
          "internalType": "address",
          "name": "from",
          "type": "address"
        },
        {
          "indexed": true,
          "internalType": "address",
          "name": "to",
          "type": "address"
        },
        {
          "indexed": false,
          "internalType": "uint256",
          "name": "value",
          "type": "uint256"
        }
      ],
      "name": "Transfer",
      "type": "event"
    },
    {
      "inputs": [],
      "name": "Claim",
      "outputs": [],
      "stateMutability": "payable",
      "type": "function"
    },
    {
      "inputs": [
        {
          "internalType": "address",
          "name": "_address",
          "type": "address"
        }
      ],
      "name": "addWhitelist",
      "outputs": [],
      "stateMutability": "nonpayable",
      "type": "function"
    },
    {
      "inputs": [
        {
          "internalType": "address",
          "name": "owner",
          "type": "address"
        },
        {
          "internalType": "address",
          "name": "spender",
          "type": "address"
        }
      ],
      "name": "allowance",
      "outputs": [
        {
          "internalType": "uint256",
          "name": "",
          "type": "uint256"
        }
      ],
      "stateMutability": "view",
      "type": "function"
    },
    {
      "inputs": [
        {
          "internalType": "address",
          "name": "spender",
          "type": "address"
        },
        {
          "internalType": "uint256",
          "name": "amount",
          "type": "uint256"
        }
      ],
      "name": "approve",
      "outputs": [
        {
          "internalType": "bool",
          "name": "",
          "type": "bool"
        }
      ],
      "stateMutability": "nonpayable",
      "type": "function"
    },
    {
      "inputs": [
        {
          "internalType": "address",
          "name": "account",
          "type": "address"
        }
      ],
      "name": "balanceOf",
      "outputs": [
        {
          "internalType": "uint256",
          "name": "",
          "type": "uint256"
        }
      ],
      "stateMutability": "view",
      "type": "function"
    },
    {
      "inputs": [
        {
          "internalType": "address",
          "name": "_address",
          "type": "address"
        }
      ],
      "name": "checkInWhitelist",
      "outputs": [
        {
          "internalType": "bool",
          "name": "",
          "type": "bool"
        }
      ],
      "stateMutability": "view",
      "type": "function"
    },
    {
      "inputs": [],
      "name": "crowdSale",
      "outputs": [],
      "stateMutability": "payable",
      "type": "function"
    },
    {
      "inputs": [
        {
          "internalType": "address",
          "name": "",
          "type": "address"
        }
      ],
      "name": "customersBalance",
      "outputs": [
        {
          "internalType": "uint256",
          "name": "",
          "type": "uint256"
        }
      ],
      "stateMutability": "view",
      "type": "function"
    },
    {
      "inputs": [],
      "name": "deadline",
      "outputs": [
        {
          "internalType": "uint256",
          "name": "",
          "type": "uint256"
        }
      ],
      "stateMutability": "view",
      "type": "function"
    },
    {
      "inputs": [],
      "name": "decimals",
      "outputs": [
        {
          "internalType": "uint8",
          "name": "",
          "type": "uint8"
        }
      ],
      "stateMutability": "view",
      "type": "function"
    },
    {
      "inputs": [
        {
          "internalType": "address",
          "name": "spender",
          "type": "address"
        },
        {
          "internalType": "uint256",
          "name": "subtractedValue",
          "type": "uint256"
        }
      ],
      "name": "decreaseAllowance",
      "outputs": [
        {
          "internalType": "bool",
          "name": "",
          "type": "bool"
        }
      ],
      "stateMutability": "nonpayable",
      "type": "function"
    },
    {
      "inputs": [
        {
          "internalType": "address",
          "name": "spender",
          "type": "address"
        },
        {
          "internalType": "uint256",
          "name": "addedValue",
          "type": "uint256"
        }
      ],
      "name": "increaseAllowance",
      "outputs": [
        {
          "internalType": "bool",
          "name": "",
          "type": "bool"
        }
      ],
      "stateMutability": "nonpayable",
      "type": "function"
    },
    {
      "inputs": [],
      "name": "name",
      "outputs": [
        {
          "internalType": "string",
          "name": "",
          "type": "string"
        }
      ],
      "stateMutability": "view",
      "type": "function"
    },
    {
      "inputs": [],
      "name": "owner",
      "outputs": [
        {
          "internalType": "address payable",
          "name": "",
          "type": "address"
        }
      ],
      "stateMutability": "view",
      "type": "function"
    },
    {
      "inputs": [],
      "name": "ownerWallet",
      "outputs": [
        {
          "internalType": "uint256",
          "name": "",
          "type": "uint256"
        }
      ],
      "stateMutability": "view",
      "type": "function"
    },
    {
      "inputs": [],
      "name": "startline",
      "outputs": [
        {
          "internalType": "uint256",
          "name": "",
          "type": "uint256"
        }
      ],
      "stateMutability": "view",
      "type": "function"
    },
    {
      "inputs": [],
      "name": "symbol",
      "outputs": [
        {
          "internalType": "string",
          "name": "",
          "type": "string"
        }
      ],
      "stateMutability": "view",
      "type": "function"
    },
    {
      "inputs": [],
      "name": "totalSupply",
      "outputs": [
        {
          "internalType": "uint256",
          "name": "",
          "type": "uint256"
        }
      ],
      "stateMutability": "view",
      "type": "function"
    },
    {
      "inputs": [
        {
          "internalType": "address",
          "name": "to",
          "type": "address"
        },
        {
          "internalType": "uint256",
          "name": "amount",
          "type": "uint256"
        }
      ],
      "name": "transfer",
      "outputs": [
        {
          "internalType": "bool",
          "name": "",
          "type": "bool"
        }
      ],
      "stateMutability": "nonpayable",
      "type": "function"
    },
    {
      "inputs": [
        {
          "internalType": "address",
          "name": "from",
          "type": "address"
        },
        {
          "internalType": "address",
          "name": "to",
          "type": "address"
        },
        {
          "internalType": "uint256",
          "name": "amount",
          "type": "uint256"
        }
      ],
      "name": "transferFrom",
      "outputs": [
        {
          "internalType": "bool",
          "name": "",
          "type": "bool"
        }
      ],
      "stateMutability": "nonpayable",
      "type": "function"
    },
    {
      "inputs": [
        {
          "internalType": "address",
          "name": "",
          "type": "address"
        }
      ],
      "name": "whitelist",
      "outputs": [
        {
          "internalType": "bool",
          "name": "",
          "type": "bool"
        }
      ],
      "stateMutability": "view",
      "type": "function"
    }
  ],
  "bytecode": "0x6080604052636412d55860055563641426d86006553480156200002157600080fd5b5060405162002cac38038062002cac833981810160405281019062000047919062000442565b818181600390816200005a919062000712565b5080600490816200006c919062000712565b5050506200007f6200012f60201b60201c565b60ff16600a6200009091906200097c565b6127106200009f9190620009cd565b600981905550620000e633620000ba6200012f60201b60201c565b60ff16600a620000cb91906200097c565b612710620000da9190620009cd565b6200013860201b60201c565b33600760006101000a81548173ffffffffffffffffffffffffffffffffffffffff021916908373ffffffffffffffffffffffffffffffffffffffff160217905550505062000b04565b60006012905090565b600073ffffffffffffffffffffffffffffffffffffffff168273ffffffffffffffffffffffffffffffffffffffff1603620001aa576040517f08c379a0000000000000000000000000000000000000000000000000000000008152600401620001a19062000a79565b60405180910390fd5b620001be60008383620002a560201b60201c565b8060026000828254620001d2919062000a9b565b92505081905550806000808473ffffffffffffffffffffffffffffffffffffffff1673ffffffffffffffffffffffffffffffffffffffff168152602001908152602001600020600082825401925050819055508173ffffffffffffffffffffffffffffffffffffffff16600073ffffffffffffffffffffffffffffffffffffffff167fddf252ad1be2c89b69c2b068fc378daa952ba7f163c4a11628f55a4df523b3ef8360405162000285919062000ae7565b60405180910390a3620002a160008383620002aa60201b60201c565b5050565b505050565b505050565b6000604051905090565b600080fd5b600080fd5b600080fd5b600080fd5b6000601f19601f8301169050919050565b7f4e487b7100000000000000000000000000000000000000000000000000000000600052604160045260246000fd5b6200031882620002cd565b810181811067ffffffffffffffff821117156200033a5762000339620002de565b5b80604052505050565b60006200034f620002af565b90506200035d82826200030d565b919050565b600067ffffffffffffffff82111562000380576200037f620002de565b5b6200038b82620002cd565b9050602081019050919050565b60005b83811015620003b85780820151818401526020810190506200039b565b60008484015250505050565b6000620003db620003d58462000362565b62000343565b905082815260208101848484011115620003fa57620003f9620002c8565b5b6200040784828562000398565b509392505050565b600082601f830112620004275762000426620002c3565b5b815162000439848260208601620003c4565b91505092915050565b600080604083850312156200045c576200045b620002b9565b5b600083015167ffffffffffffffff8111156200047d576200047c620002be565b5b6200048b858286016200040f565b925050602083015167ffffffffffffffff811115620004af57620004ae620002be565b5b620004bd858286016200040f565b9150509250929050565b600081519050919050565b7f4e487b7100000000000000000000000000000000000000000000000000000000600052602260045260246000fd5b600060028204905060018216806200051a57607f821691505b60208210810362000530576200052f620004d2565b5b50919050565b60008190508160005260206000209050919050565b60006020601f8301049050919050565b600082821b905092915050565b6000600883026200059a7fffffffffffffffffffffffffffffffffffffffffffffffffffffffffffffffff826200055b565b620005a686836200055b565b95508019841693508086168417925050509392505050565b6000819050919050565b6000819050919050565b6000620005f3620005ed620005e784620005be565b620005c8565b620005be565b9050919050565b6000819050919050565b6200060f83620005d2565b620006276200061e82620005fa565b84845462000568565b825550505050565b600090565b6200063e6200062f565b6200064b81848462000604565b505050565b5b8181101562000673576200066760008262000634565b60018101905062000651565b5050565b601f821115620006c2576200068c8162000536565b62000697846200054b565b81016020851015620006a7578190505b620006bf620006b6856200054b565b83018262000650565b50505b505050565b600082821c905092915050565b6000620006e760001984600802620006c7565b1980831691505092915050565b6000620007028383620006d4565b9150826002028217905092915050565b6200071d82620004c7565b67ffffffffffffffff811115620007395762000738620002de565b5b62000745825462000501565b6200075282828562000677565b600060209050601f8311600181146200078a576000841562000775578287015190505b620007818582620006f4565b865550620007f1565b601f1984166200079a8662000536565b60005b82811015620007c4578489015182556001820191506020850194506020810190506200079d565b86831015620007e45784890151620007e0601f891682620006d4565b8355505b6001600288020188555050505b505050505050565b7f4e487b7100000000000000000000000000000000000000000000000000000000600052601160045260246000fd5b60008160011c9050919050565b6000808291508390505b600185111562000887578086048111156200085f576200085e620007f9565b5b60018516156200086f5780820291505b80810290506200087f8562000828565b94506200083f565b94509492505050565b600082620008a2576001905062000975565b81620008b2576000905062000975565b8160018114620008cb5760028114620008d6576200090c565b600191505062000975565b60ff841115620008eb57620008ea620007f9565b5b8360020a915084821115620009055762000904620007f9565b5b5062000975565b5060208310610133831016604e8410600b8410161715620009465782820a90508381111562000940576200093f620007f9565b5b62000975565b62000955848484600162000835565b925090508184048111156200096f576200096e620007f9565b5b81810290505b9392505050565b60006200098982620005be565b91506200099683620005be565b9250620009c57fffffffffffffffffffffffffffffffffffffffffffffffffffffffffffffffff848462000890565b905092915050565b6000620009da82620005be565b9150620009e783620005be565b9250828202620009f781620005be565b9150828204841483151762000a115762000a10620007f9565b5b5092915050565b600082825260208201905092915050565b7f45524332303a206d696e7420746f20746865207a65726f206164647265737300600082015250565b600062000a61601f8362000a18565b915062000a6e8262000a29565b602082019050919050565b6000602082019050818103600083015262000a948162000a52565b9050919050565b600062000aa882620005be565b915062000ab583620005be565b925082820190508082111562000ad05762000acf620007f9565b5b92915050565b62000ae181620005be565b82525050565b600060208201905062000afe600083018462000ad6565b92915050565b6121988062000b146000396000f3fe60806040526004361061012a5760003560e01c80636884ea58116100ab57806395d89b411161006f57806395d89b41146103de5780639b19251a14610409578063a457c2d714610446578063a9059cbb14610483578063dd62ed3e146104c0578063f80f5dd5146104fd5761012a565b80636884ea581461030457806370a08231146103415780637770bd151461037e5780638da5cb5b146103885780639335dcb7146103b35761012a565b806329dcb0cf116100f257806329dcb0cf1461022a578063313ce567146102555780633158952e14610280578063395093511461028a578063612a590f146102c75761012a565b806306fdde031461012f578063095ea7b31461015a57806318160ddd146101975780631ffe4cca146101c257806323b872dd146101ed575b600080fd5b34801561013b57600080fd5b50610144610526565b6040516101519190611591565b60405180910390f35b34801561016657600080fd5b50610181600480360381019061017c919061164c565b6105b8565b60405161018e91906116a7565b60405180910390f35b3480156101a357600080fd5b506101ac6105db565b6040516101b991906116d1565b60405180910390f35b3480156101ce57600080fd5b506101d76105e5565b6040516101e491906116d1565b60405180910390f35b3480156101f957600080fd5b50610214600480360381019061020f91906116ec565b6105eb565b60405161022191906116a7565b60405180910390f35b34801561023657600080fd5b5061023f61061a565b60405161024c91906116d1565b60405180910390f35b34801561026157600080fd5b5061026a610620565b604051610277919061175b565b60405180910390f35b610288610629565b005b34801561029657600080fd5b506102b160048036038101906102ac919061164c565b61085d565b6040516102be91906116a7565b60405180910390f35b3480156102d357600080fd5b506102ee60048036038101906102e99190611776565b610894565b6040516102fb91906116d1565b60405180910390f35b34801561031057600080fd5b5061032b60048036038101906103269190611776565b6108ac565b60405161033891906116a7565b60405180910390f35b34801561034d57600080fd5b5061036860048036038101906103639190611776565b610919565b60405161037591906116d1565b60405180910390f35b610386610961565b005b34801561039457600080fd5b5061039d610b51565b6040516103aa91906117c4565b60405180910390f35b3480156103bf57600080fd5b506103c8610b77565b6040516103d591906116d1565b60405180910390f35b3480156103ea57600080fd5b506103f3610b7d565b6040516104009190611591565b60405180910390f35b34801561041557600080fd5b50610430600480360381019061042b9190611776565b610c0f565b60405161043d91906116a7565b60405180910390f35b34801561045257600080fd5b5061046d6004803603810190610468919061164c565b610c2f565b60405161047a91906116a7565b60405180910390f35b34801561048f57600080fd5b506104aa60048036038101906104a5919061164c565b610ca6565b6040516104b791906116a7565b60405180910390f35b3480156104cc57600080fd5b506104e760048036038101906104e291906117df565b610cc9565b6040516104f491906116d1565b60405180910390f35b34801561050957600080fd5b50610524600480360381019061051f9190611776565b610d50565b005b6060600380546105359061184e565b80601f01602080910402602001604051908101604052809291908181526020018280546105619061184e565b80156105ae5780601f10610583576101008083540402835291602001916105ae565b820191906000526020600020905b81548152906001019060200180831161059157829003601f168201915b5050505050905090565b6000806105c3610ece565b90506105d0818585610ed6565b600191505092915050565b6000600254905090565b60055481565b6000806105f6610ece565b905061060385828561109f565b61060e85858561112b565b60019150509392505050565b60065481565b60006012905090565b600c60003373ffffffffffffffffffffffffffffffffffffffff1673ffffffffffffffffffffffffffffffffffffffff16815260200190815260200160002060009054906101000a900460ff166106b5576040517f08c379a00000000000000000000000000000000000000000000000000000000081526004016106ac906118cb565b60405180910390fd5b6000600b60003373ffffffffffffffffffffffffffffffffffffffff1673ffffffffffffffffffffffffffffffffffffffff1681526020019081526020016000205411610737576040517f08c379a000000000000000000000000000000000000000000000000000000000815260040161072e9061195d565b60405180910390fd5b6000612710600854600b60003373ffffffffffffffffffffffffffffffffffffffff1673ffffffffffffffffffffffffffffffffffffffff1681526020019081526020016000205461078991906119db565b6107939190611a0c565b905061079f33826113a1565b80600b6000600760009054906101000a900473ffffffffffffffffffffffffffffffffffffffff1673ffffffffffffffffffffffffffffffffffffffff1673ffffffffffffffffffffffffffffffffffffffff16815260200190815260200160002060008282546108109190611a4e565b92505081905550600b60003373ffffffffffffffffffffffffffffffffffffffff1673ffffffffffffffffffffffffffffffffffffffff1681526020019081526020016000206000905550565b600080610868610ece565b905061088981858561087a8589610cc9565b6108849190611a82565b610ed6565b600191505092915050565b600b6020528060005260406000206000915090505481565b600060011515600c60008473ffffffffffffffffffffffffffffffffffffffff1673ffffffffffffffffffffffffffffffffffffffff16815260200190815260200160002060009054906101000a900460ff1615150361090f5760019050610914565b600090505b919050565b60008060008373ffffffffffffffffffffffffffffffffffffffff1673ffffffffffffffffffffffffffffffffffffffff168152602001908152602001600020549050919050565b6005544211156109a6576040517f08c379a000000000000000000000000000000000000000000000000000000000815260040161099d90611b02565b60405180910390fd5b6006544211156109eb576040517f08c379a00000000000000000000000000000000000000000000000000000000081526004016109e290611b6e565b60405180910390fd5b600c60003373ffffffffffffffffffffffffffffffffffffffff1673ffffffffffffffffffffffffffffffffffffffff16815260200190815260200160002060009054906101000a900460ff16610a77576040517f08c379a0000000000000000000000000000000000000000000000000000000008152600401610a6e90611c00565b60405180910390fd5b3460086000828254610a899190611a82565b9250508190555034600b60003373ffffffffffffffffffffffffffffffffffffffff1673ffffffffffffffffffffffffffffffffffffffff1681526020019081526020016000206000828254610adf9190611a82565b92505081905550600760009054906101000a900473ffffffffffffffffffffffffffffffffffffffff1673ffffffffffffffffffffffffffffffffffffffff166108fc349081150290604051600060405180830381858888f19350505050158015610b4e573d6000803e3d6000fd5b50565b600760009054906101000a900473ffffffffffffffffffffffffffffffffffffffff1681565b60085481565b606060048054610b8c9061184e565b80601f0160208091040260200160405190810160405280929190818152602001828054610bb89061184e565b8015610c055780601f10610bda57610100808354040283529160200191610c05565b820191906000526020600020905b815481529060010190602001808311610be857829003601f168201915b5050505050905090565b600c6020528060005260406000206000915054906101000a900460ff1681565b600080610c3a610ece565b90506000610c488286610cc9565b905083811015610c8d576040517f08c379a0000000000000000000000000000000000000000000000000000000008152600401610c8490611c92565b60405180910390fd5b610c9a8286868403610ed6565b60019250505092915050565b600080610cb1610ece565b9050610cbe81858561112b565b600191505092915050565b6000600160008473ffffffffffffffffffffffffffffffffffffffff1673ffffffffffffffffffffffffffffffffffffffff16815260200190815260200160002060008373ffffffffffffffffffffffffffffffffffffffff1673ffffffffffffffffffffffffffffffffffffffff16815260200190815260200160002054905092915050565b600760009054906101000a900473ffffffffffffffffffffffffffffffffffffffff1673ffffffffffffffffffffffffffffffffffffffff163373ffffffffffffffffffffffffffffffffffffffff1614610de0576040517f08c379a0000000000000000000000000000000000000000000000000000000008152600401610dd790611d24565b60405180910390fd5b60011515600c60008373ffffffffffffffffffffffffffffffffffffffff1673ffffffffffffffffffffffffffffffffffffffff16815260200190815260200160002060009054906101000a900460ff16151514610e73576040517f08c379a0000000000000000000000000000000000000000000000000000000008152600401610e6a90611d90565b60405180910390fd5b6001600c60008373ffffffffffffffffffffffffffffffffffffffff1673ffffffffffffffffffffffffffffffffffffffff16815260200190815260200160002060006101000a81548160ff02191690831515021790555050565b600033905090565b600073ffffffffffffffffffffffffffffffffffffffff168373ffffffffffffffffffffffffffffffffffffffff1603610f45576040517f08c379a0000000000000000000000000000000000000000000000000000000008152600401610f3c90611e22565b60405180910390fd5b600073ffffffffffffffffffffffffffffffffffffffff168273ffffffffffffffffffffffffffffffffffffffff1603610fb4576040517f08c379a0000000000000000000000000000000000000000000000000000000008152600401610fab90611eb4565b60405180910390fd5b80600160008573ffffffffffffffffffffffffffffffffffffffff1673ffffffffffffffffffffffffffffffffffffffff16815260200190815260200160002060008473ffffffffffffffffffffffffffffffffffffffff1673ffffffffffffffffffffffffffffffffffffffff168152602001908152602001600020819055508173ffffffffffffffffffffffffffffffffffffffff168373ffffffffffffffffffffffffffffffffffffffff167f8c5be1e5ebec7d5bd14f71427d1e84f3dd0314c0f7b2291e5b200ac8c7c3b9258360405161109291906116d1565b60405180910390a3505050565b60006110ab8484610cc9565b90507fffffffffffffffffffffffffffffffffffffffffffffffffffffffffffffffff81146111255781811015611117576040517f08c379a000000000000000000000000000000000000000000000000000000000815260040161110e90611f20565b60405180910390fd5b6111248484848403610ed6565b5b50505050565b600073ffffffffffffffffffffffffffffffffffffffff168373ffffffffffffffffffffffffffffffffffffffff160361119a576040517f08c379a000000000000000000000000000000000000000000000000000000000815260040161119190611fb2565b60405180910390fd5b600073ffffffffffffffffffffffffffffffffffffffff168273ffffffffffffffffffffffffffffffffffffffff1603611209576040517f08c379a000000000000000000000000000000000000000000000000000000000815260040161120090612044565b60405180910390fd5b6112148383836114f7565b60008060008573ffffffffffffffffffffffffffffffffffffffff1673ffffffffffffffffffffffffffffffffffffffff1681526020019081526020016000205490508181101561129a576040517f08c379a0000000000000000000000000000000000000000000000000000000008152600401611291906120d6565b60405180910390fd5b8181036000808673ffffffffffffffffffffffffffffffffffffffff1673ffffffffffffffffffffffffffffffffffffffff16815260200190815260200160002081905550816000808573ffffffffffffffffffffffffffffffffffffffff1673ffffffffffffffffffffffffffffffffffffffff168152602001908152602001600020600082825401925050819055508273ffffffffffffffffffffffffffffffffffffffff168473ffffffffffffffffffffffffffffffffffffffff167fddf252ad1be2c89b69c2b068fc378daa952ba7f163c4a11628f55a4df523b3ef8460405161138891906116d1565b60405180910390a361139b8484846114fc565b50505050565b600073ffffffffffffffffffffffffffffffffffffffff168273ffffffffffffffffffffffffffffffffffffffff1603611410576040517f08c379a000000000000000000000000000000000000000000000000000000000815260040161140790612142565b60405180910390fd5b61141c600083836114f7565b806002600082825461142e9190611a82565b92505081905550806000808473ffffffffffffffffffffffffffffffffffffffff1673ffffffffffffffffffffffffffffffffffffffff168152602001908152602001600020600082825401925050819055508173ffffffffffffffffffffffffffffffffffffffff16600073ffffffffffffffffffffffffffffffffffffffff167fddf252ad1be2c89b69c2b068fc378daa952ba7f163c4a11628f55a4df523b3ef836040516114df91906116d1565b60405180910390a36114f3600083836114fc565b5050565b505050565b505050565b600081519050919050565b600082825260208201905092915050565b60005b8381101561153b578082015181840152602081019050611520565b60008484015250505050565b6000601f19601f8301169050919050565b600061156382611501565b61156d818561150c565b935061157d81856020860161151d565b61158681611547565b840191505092915050565b600060208201905081810360008301526115ab8184611558565b905092915050565b600080fd5b600073ffffffffffffffffffffffffffffffffffffffff82169050919050565b60006115e3826115b8565b9050919050565b6115f3816115d8565b81146115fe57600080fd5b50565b600081359050611610816115ea565b92915050565b6000819050919050565b61162981611616565b811461163457600080fd5b50565b60008135905061164681611620565b92915050565b60008060408385031215611663576116626115b3565b5b600061167185828601611601565b925050602061168285828601611637565b9150509250929050565b60008115159050919050565b6116a18161168c565b82525050565b60006020820190506116bc6000830184611698565b92915050565b6116cb81611616565b82525050565b60006020820190506116e660008301846116c2565b92915050565b600080600060608486031215611705576117046115b3565b5b600061171386828701611601565b935050602061172486828701611601565b925050604061173586828701611637565b9150509250925092565b600060ff82169050919050565b6117558161173f565b82525050565b6000602082019050611770600083018461174c565b92915050565b60006020828403121561178c5761178b6115b3565b5b600061179a84828501611601565b91505092915050565b60006117ae826115b8565b9050919050565b6117be816117a3565b82525050565b60006020820190506117d960008301846117b5565b92915050565b600080604083850312156117f6576117f56115b3565b5b600061180485828601611601565b925050602061181585828601611601565b9150509250929050565b7f4e487b7100000000000000000000000000000000000000000000000000000000600052602260045260246000fd5b6000600282049050600182168061186657607f821691505b6020821081036118795761187861181f565b5b50919050565b7f4e6f207065726d697373696f6e00000000000000000000000000000000000000600082015250565b60006118b5600d8361150c565b91506118c08261187f565b602082019050919050565b600060208201905081810360008301526118e4816118a8565b9050919050565b7f5468657265206973206e6f20616d6f756e7420746861742063616e206265207760008201527f697468647261776e000000000000000000000000000000000000000000000000602082015250565b600061194760288361150c565b9150611952826118eb565b604082019050919050565b600060208201905081810360008301526119768161193a565b9050919050565b7f4e487b7100000000000000000000000000000000000000000000000000000000600052601260045260246000fd5b7f4e487b7100000000000000000000000000000000000000000000000000000000600052601160045260246000fd5b60006119e682611616565b91506119f183611616565b925082611a0157611a0061197d565b5b828204905092915050565b6000611a1782611616565b9150611a2283611616565b9250828202611a3081611616565b91508282048414831517611a4757611a466119ac565b5b5092915050565b6000611a5982611616565b9150611a6483611616565b9250828203905081811115611a7c57611a7b6119ac565b5b92915050565b6000611a8d82611616565b9150611a9883611616565b9250828201905080821115611ab057611aaf6119ac565b5b92915050565b7f43726f776473616c65206e6f7420737461727465642079657420000000000000600082015250565b6000611aec601a8361150c565b9150611af782611ab6565b602082019050919050565b60006020820190508181036000830152611b1b81611adf565b9050919050565b7f43726f776473616c652068617320656e64656400000000000000000000000000600082015250565b6000611b5860138361150c565b9150611b6382611b22565b602082019050919050565b60006020820190508181036000830152611b8781611b4b565b9050919050565b7f4f6e6c792077686974656c69737465642075736572732063616e20707572636860008201527f61736520746f6b656e7300000000000000000000000000000000000000000000602082015250565b6000611bea602a8361150c565b9150611bf582611b8e565b604082019050919050565b60006020820190508181036000830152611c1981611bdd565b9050919050565b7f45524332303a2064656372656173656420616c6c6f77616e63652062656c6f7760008201527f207a65726f000000000000000000000000000000000000000000000000000000602082015250565b6000611c7c60258361150c565b9150611c8782611c20565b604082019050919050565b60006020820190508181036000830152611cab81611c6f565b9050919050565b7f4f6e6c7920636f6e7472616374206f776e65722063616e2061646420746f207760008201527f686974656c697374000000000000000000000000000000000000000000000000602082015250565b6000611d0e60288361150c565b9150611d1982611cb2565b604082019050919050565b60006020820190508181036000830152611d3d81611d01565b9050919050565b7f416c726561647920616464656420697020746f206c6973740000000000000000600082015250565b6000611d7a60188361150c565b9150611d8582611d44565b602082019050919050565b60006020820190508181036000830152611da981611d6d565b9050919050565b7f45524332303a20617070726f76652066726f6d20746865207a65726f2061646460008201527f7265737300000000000000000000000000000000000000000000000000000000602082015250565b6000611e0c60248361150c565b9150611e1782611db0565b604082019050919050565b60006020820190508181036000830152611e3b81611dff565b9050919050565b7f45524332303a20617070726f766520746f20746865207a65726f20616464726560008201527f7373000000000000000000000000000000000000000000000000000000000000602082015250565b6000611e9e60228361150c565b9150611ea982611e42565b604082019050919050565b60006020820190508181036000830152611ecd81611e91565b9050919050565b7f45524332303a20696e73756666696369656e7420616c6c6f77616e6365000000600082015250565b6000611f0a601d8361150c565b9150611f1582611ed4565b602082019050919050565b60006020820190508181036000830152611f3981611efd565b9050919050565b7f45524332303a207472616e736665722066726f6d20746865207a65726f20616460008201527f6472657373000000000000000000000000000000000000000000000000000000602082015250565b6000611f9c60258361150c565b9150611fa782611f40565b604082019050919050565b60006020820190508181036000830152611fcb81611f8f565b9050919050565b7f45524332303a207472616e7366657220746f20746865207a65726f206164647260008201527f6573730000000000000000000000000000000000000000000000000000000000602082015250565b600061202e60238361150c565b915061203982611fd2565b604082019050919050565b6000602082019050818103600083015261205d81612021565b9050919050565b7f45524332303a207472616e7366657220616d6f756e742065786365656473206260008201527f616c616e63650000000000000000000000000000000000000000000000000000602082015250565b60006120c060268361150c565b91506120cb82612064565b604082019050919050565b600060208201905081810360008301526120ef816120b3565b9050919050565b7f45524332303a206d696e7420746f20746865207a65726f206164647265737300600082015250565b600061212c601f8361150c565b9150612137826120f6565b602082019050919050565b6000602082019050818103600083015261215b8161211f565b905091905056fea26469706673582212200bdcaafa22c64c4a9b2fa4f37bd54184d717740bdb16c2592c3f13bc88d2953564736f6c63430008120033",
  "linkReferences": {},
  "deployedLinkReferences": {}
}