{
  "_format": "hh-sol-artifact-1",
  "contractName": "Lock",
  "sourceName": "contracts/Lock.sol",
  "abi": [
    {
      "inputs": [
        {
          "internalType": "uint256",
          "name": "_unlockTime",
          "type": "uint256"
        }
      ],
      "stateMutability": "payable",
      "type": "constructor"
    },
    {
      "anonymous": false,
      "inputs": [
        {
          "indexed": false,
          "internalType": "uint256",
          "name": "amount",
          "type": "uint256"
        },
        {
          "indexed": false,
          "internalType": "uint256",
          "name": "when",
          "type": "uint256"
        }
      ],
      "name": "Withdrawal",
      "type": "event"
    },
    {
      "inputs": [
        {
          "internalType": "address payable",
          "name": "user",
          "type": "address"
        }
      ],
      "name": "Claim",
      "outputs": [],
      "stateMutability": "nonpayable",
      "type": "function"
    },
    {
      "inputs": [
        {
          "internalType": "address",
          "name": "user",
          "type": "address"
        }
      ],
      "name": "addWhitelist",
      "outputs": [],
      "stateMutability": "nonpayable",
      "type": "function"
    },
    {
      "inputs": [
        {
          "internalType": "address",
          "name": "",
          "type": "address"
        }
      ],
      "name": "balanceOf",
      "outputs": [
        {
          "internalType": "uint256",
          "name": "",
          "type": "uint256"
        }
      ],
      "stateMutability": "view",
      "type": "function"
    },
    {
      "inputs": [],
      "name": "buyTokens",
      "outputs": [],
      "stateMutability": "payable",
      "type": "function"
    },
    {
      "inputs": [
        {
          "internalType": "address",
          "name": "",
          "type": "address"
        }
      ],
      "name": "customersQuota",
      "outputs": [
        {
          "internalType": "uint256",
          "name": "",
          "type": "uint256"
        }
      ],
      "stateMutability": "view",
      "type": "function"
    },
    {
      "inputs": [],
      "name": "deadline",
      "outputs": [
        {
          "internalType": "uint256",
          "name": "",
          "type": "uint256"
        }
      ],
      "stateMutability": "view",
      "type": "function"
    },
    {
      "inputs": [],
      "name": "decimals",
      "outputs": [
        {
          "internalType": "uint256",
          "name": "",
          "type": "uint256"
        }
      ],
      "stateMutability": "view",
      "type": "function"
    },
    {
      "inputs": [],
      "name": "name",
      "outputs": [
        {
          "internalType": "string",
          "name": "",
          "type": "string"
        }
      ],
      "stateMutability": "view",
      "type": "function"
    },
    {
      "inputs": [],
      "name": "owner",
      "outputs": [
        {
          "internalType": "address payable",
          "name": "",
          "type": "address"
        }
      ],
      "stateMutability": "view",
      "type": "function"
    },
    {
      "inputs": [],
      "name": "startline",
      "outputs": [
        {
          "internalType": "uint256",
          "name": "",
          "type": "uint256"
        }
      ],
      "stateMutability": "view",
      "type": "function"
    },
    {
      "inputs": [],
      "name": "symbol",
      "outputs": [
        {
          "internalType": "string",
          "name": "",
          "type": "string"
        }
      ],
      "stateMutability": "view",
      "type": "function"
    },
    {
      "inputs": [],
      "name": "tokensTotal",
      "outputs": [
        {
          "internalType": "uint256",
          "name": "",
          "type": "uint256"
        }
      ],
      "stateMutability": "view",
      "type": "function"
    },
    {
      "inputs": [],
      "name": "totalStock",
      "outputs": [
        {
          "internalType": "uint256",
          "name": "",
          "type": "uint256"
        }
      ],
      "stateMutability": "view",
      "type": "function"
    },
    {
      "inputs": [],
      "name": "totalSupply",
      "outputs": [
        {
          "internalType": "uint256",
          "name": "",
          "type": "uint256"
        }
      ],
      "stateMutability": "view",
      "type": "function"
    },
    {
      "inputs": [],
      "name": "unlockTime",
      "outputs": [
        {
          "internalType": "uint256",
          "name": "",
          "type": "uint256"
        }
      ],
      "stateMutability": "view",
      "type": "function"
    },
    {
      "inputs": [
        {
          "internalType": "address",
          "name": "",
          "type": "address"
        }
      ],
      "name": "whitelist",
      "outputs": [
        {
          "internalType": "bool",
          "name": "",
          "type": "bool"
        }
      ],
      "stateMutability": "view",
      "type": "function"
    },
    {
      "inputs": [],
      "name": "withdraw",
      "outputs": [],
      "stateMutability": "nonpayable",
      "type": "function"
    }
  ],
  "bytecode": "0x60806040526364075f80600855636db9fd8060095560405162001d1638038062001d1683398181016040528101906200003991906200039d565b8042106200007e576040517f08c379a0000000000000000000000000000000000000000000000000000000008152600401620000759062000456565b60405180910390fd5b6040518060400160405280600681526020017f56746f6b656e000000000000000000000000000000000000000000000000000081525060029081620000c49190620006e8565b506040518060400160405280600381526020017f5652410000000000000000000000000000000000000000000000000000000000815250600390816200010b9190620006e8565b506012600481905550600454600a62000125919062000952565b612710620001349190620009a3565b600581905550600554600660003373ffffffffffffffffffffffffffffffffffffffff1673ffffffffffffffffffffffffffffffffffffffff168152602001908152602001600020819055508060008190555033600160006101000a81548173ffffffffffffffffffffffffffffffffffffffff021916908373ffffffffffffffffffffffffffffffffffffffff16021790555033600160006101000a81548173ffffffffffffffffffffffffffffffffffffffff021916908373ffffffffffffffffffffffffffffffffffffffff160217905550600160076000735b38da6a701c568545dcfcb03fcb875f56beddc473ffffffffffffffffffffffffffffffffffffffff1673ffffffffffffffffffffffffffffffffffffffff16815260200190815260200160002060006101000a81548160ff02191690831515021790555060016007600073ab8483f64d9c6d1ecf9b849ae677dd3315835cb273ffffffffffffffffffffffffffffffffffffffff1673ffffffffffffffffffffffffffffffffffffffff16815260200190815260200160002060006101000a81548160ff02191690831515021790555060016007600073ca35b7d915458ef540ade6068dfe2f44e8fa733c73ffffffffffffffffffffffffffffffffffffffff1673ffffffffffffffffffffffffffffffffffffffff16815260200190815260200160002060006101000a81548160ff021916908315150217905550612710600a8190555050620009ee565b600080fd5b6000819050919050565b620003778162000362565b81146200038357600080fd5b50565b60008151905062000397816200036c565b92915050565b600060208284031215620003b657620003b56200035d565b5b6000620003c68482850162000386565b91505092915050565b600082825260208201905092915050565b7f556e6c6f636b2074696d652073686f756c6420626520696e207468652066757460008201527f7572650000000000000000000000000000000000000000000000000000000000602082015250565b60006200043e602383620003cf565b91506200044b82620003e0565b604082019050919050565b6000602082019050818103600083015262000471816200042f565b9050919050565b600081519050919050565b7f4e487b7100000000000000000000000000000000000000000000000000000000600052604160045260246000fd5b7f4e487b7100000000000000000000000000000000000000000000000000000000600052602260045260246000fd5b60006002820490506001821680620004fa57607f821691505b60208210810362000510576200050f620004b2565b5b50919050565b60008190508160005260206000209050919050565b60006020601f8301049050919050565b600082821b905092915050565b6000600883026200057a7fffffffffffffffffffffffffffffffffffffffffffffffffffffffffffffffff826200053b565b6200058686836200053b565b95508019841693508086168417925050509392505050565b6000819050919050565b6000620005c9620005c3620005bd8462000362565b6200059e565b62000362565b9050919050565b6000819050919050565b620005e583620005a8565b620005fd620005f482620005d0565b84845462000548565b825550505050565b600090565b6200061462000605565b62000621818484620005da565b505050565b5b8181101562000649576200063d6000826200060a565b60018101905062000627565b5050565b601f8211156200069857620006628162000516565b6200066d846200052b565b810160208510156200067d578190505b620006956200068c856200052b565b83018262000626565b50505b505050565b600082821c905092915050565b6000620006bd600019846008026200069d565b1980831691505092915050565b6000620006d88383620006aa565b9150826002028217905092915050565b620006f38262000478565b67ffffffffffffffff8111156200070f576200070e62000483565b5b6200071b8254620004e1565b620007288282856200064d565b600060209050601f8311600181146200076057600084156200074b578287015190505b620007578582620006ca565b865550620007c7565b601f198416620007708662000516565b60005b828110156200079a5784890151825560018201915060208501945060208101905062000773565b86831015620007ba5784890151620007b6601f891682620006aa565b8355505b6001600288020188555050505b505050505050565b7f4e487b7100000000000000000000000000000000000000000000000000000000600052601160045260246000fd5b60008160011c9050919050565b6000808291508390505b60018511156200085d57808604811115620008355762000834620007cf565b5b6001851615620008455780820291505b80810290506200085585620007fe565b945062000815565b94509492505050565b6000826200087857600190506200094b565b816200088857600090506200094b565b8160018114620008a15760028114620008ac57620008e2565b60019150506200094b565b60ff841115620008c157620008c0620007cf565b5b8360020a915084821115620008db57620008da620007cf565b5b506200094b565b5060208310610133831016604e8410600b84101617156200091c5782820a905083811115620009165762000915620007cf565b5b6200094b565b6200092b84848460016200080b565b92509050818404811115620009455762000944620007cf565b5b81810290505b9392505050565b60006200095f8262000362565b91506200096c8362000362565b92506200099b7fffffffffffffffffffffffffffffffffffffffffffffffffffffffffffffffff848462000866565b905092915050565b6000620009b08262000362565b9150620009bd8362000362565b9250828202620009cd8162000362565b91508282048414831517620009e757620009e6620007cf565b5b5092915050565b61131880620009fe6000396000f3fe6080604052600436106100fe5760003560e01c80633ccfd60b1161009557806395d89b411161006457806395d89b41146103155780639b19251a14610340578063b1a951da1461037d578063d0febe4c146103a8578063f80f5dd5146103b2576100fe565b80633ccfd60b1461025957806370a08231146102705780637ba82f18146102ad5780638da5cb5b146102ea576100fe565b8063251c1aa3116100d1578063251c1aa3146101ad57806329dcb0cf146101d8578063313ce56714610203578063394610cf1461022e576100fe565b806306fdde03146101035780630c7ef9321461012e57806318160ddd146101575780631ffe4cca14610182575b600080fd5b34801561010f57600080fd5b506101186103db565b6040516101259190610c63565b60405180910390f35b34801561013a57600080fd5b5061015560048036038101906101509190610ce8565b610469565b005b34801561016357600080fd5b5061016c61059e565b6040516101799190610d2e565b60405180910390f35b34801561018e57600080fd5b506101976105a4565b6040516101a49190610d2e565b60405180910390f35b3480156101b957600080fd5b506101c26105aa565b6040516101cf9190610d2e565b60405180910390f35b3480156101e457600080fd5b506101ed6105b0565b6040516101fa9190610d2e565b60405180910390f35b34801561020f57600080fd5b506102186105b6565b6040516102259190610d2e565b60405180910390f35b34801561023a57600080fd5b506102436105bc565b6040516102509190610d2e565b60405180910390f35b34801561026557600080fd5b5061026e6105c2565b005b34801561027c57600080fd5b5061029760048036038101906102929190610d87565b61073b565b6040516102a49190610d2e565b60405180910390f35b3480156102b957600080fd5b506102d460048036038101906102cf9190610d87565b610753565b6040516102e19190610d2e565b60405180910390f35b3480156102f657600080fd5b506102ff61076b565b60405161030c9190610dc3565b60405180910390f35b34801561032157600080fd5b5061032a610791565b6040516103379190610c63565b60405180910390f35b34801561034c57600080fd5b5061036760048036038101906103629190610d87565b61081f565b6040516103749190610df9565b60405180910390f35b34801561038957600080fd5b5061039261083f565b60405161039f9190610d2e565b60405180910390f35b6103b0610845565b005b3480156103be57600080fd5b506103d960048036038101906103d49190610d87565b610a55565b005b600280546103e890610e43565b80601f016020809104026020016040519081016040528092919081815260200182805461041490610e43565b80156104615780601f1061043657610100808354040283529160200191610461565b820191906000526020600020905b81548152906001019060200180831161044457829003601f168201915b505050505081565b600760003373ffffffffffffffffffffffffffffffffffffffff1673ffffffffffffffffffffffffffffffffffffffff16815260200190815260200160002060009054906101000a900460ff166104f5576040517f08c379a00000000000000000000000000000000000000000000000000000000081526004016104ec90610ee6565b60405180910390fd5b6000612710600c54600b60008573ffffffffffffffffffffffffffffffffffffffff1673ffffffffffffffffffffffffffffffffffffffff168152602001908152602001600020546105479190610f64565b6105519190610f95565b90508173ffffffffffffffffffffffffffffffffffffffff166108fc829081150290604051600060405180830381858888f19350505050158015610599573d6000803e3d6000fd5b505050565b60055481565b60085481565b60005481565b60095481565b60045481565b600a5481565b600054421015610607576040517f08c379a00000000000000000000000000000000000000000000000000000000081526004016105fe90611023565b60405180910390fd5b600160009054906101000a900473ffffffffffffffffffffffffffffffffffffffff1673ffffffffffffffffffffffffffffffffffffffff163373ffffffffffffffffffffffffffffffffffffffff1614610697576040517f08c379a000000000000000000000000000000000000000000000000000000000815260040161068e9061108f565b60405180910390fd5b7fbf2ed60bd5b5965d685680c01195c9514e4382e28e3a5a2d2d5244bf59411b9347426040516106c89291906110af565b60405180910390a1600160009054906101000a900473ffffffffffffffffffffffffffffffffffffffff1673ffffffffffffffffffffffffffffffffffffffff166108fc479081150290604051600060405180830381858888f19350505050158015610738573d6000803e3d6000fd5b50565b60066020528060005260406000206000915090505481565b600b6020528060005260406000206000915090505481565b600160009054906101000a900473ffffffffffffffffffffffffffffffffffffffff1681565b6003805461079e90610e43565b80601f01602080910402602001604051908101604052809291908181526020018280546107ca90610e43565b80156108175780601f106107ec57610100808354040283529160200191610817565b820191906000526020600020905b8154815290600101906020018083116107fa57829003601f168201915b505050505081565b60076020528060005260406000206000915054906101000a900460ff1681565b600c5481565b60085442111561088a576040517f08c379a000000000000000000000000000000000000000000000000000000000815260040161088190611124565b60405180910390fd5b6009544211156108cf576040517f08c379a00000000000000000000000000000000000000000000000000000000081526004016108c690611190565b60405180910390fd5b600760003373ffffffffffffffffffffffffffffffffffffffff1673ffffffffffffffffffffffffffffffffffffffff16815260200190815260200160002060009054906101000a900460ff1661095b576040517f08c379a000000000000000000000000000000000000000000000000000000000815260040161095290611222565b60405180910390fd5b34600c600082825461096d9190611242565b9250508190555034600b60003373ffffffffffffffffffffffffffffffffffffffff1673ffffffffffffffffffffffffffffffffffffffff16815260200190815260200160002060008282546109c39190611242565b925050819055506000612710600c54346109dd9190610f64565b6109e79190610f95565b9050600160009054906101000a900473ffffffffffffffffffffffffffffffffffffffff1673ffffffffffffffffffffffffffffffffffffffff166108fc349081150290604051600060405180830381858888f19350505050158015610a51573d6000803e3d6000fd5b5050565b600160009054906101000a900473ffffffffffffffffffffffffffffffffffffffff1673ffffffffffffffffffffffffffffffffffffffff163373ffffffffffffffffffffffffffffffffffffffff1614610ae5576040517f08c379a0000000000000000000000000000000000000000000000000000000008152600401610adc90610ee6565b60405180910390fd5b60011515600760008373ffffffffffffffffffffffffffffffffffffffff1673ffffffffffffffffffffffffffffffffffffffff16815260200190815260200160002060009054906101000a900460ff16151514610b78576040517f08c379a0000000000000000000000000000000000000000000000000000000008152600401610b6f906112c2565b60405180910390fd5b6001600760008373ffffffffffffffffffffffffffffffffffffffff1673ffffffffffffffffffffffffffffffffffffffff16815260200190815260200160002060006101000a81548160ff02191690831515021790555050565b600081519050919050565b600082825260208201905092915050565b60005b83811015610c0d578082015181840152602081019050610bf2565b60008484015250505050565b6000601f19601f8301169050919050565b6000610c3582610bd3565b610c3f8185610bde565b9350610c4f818560208601610bef565b610c5881610c19565b840191505092915050565b60006020820190508181036000830152610c7d8184610c2a565b905092915050565b600080fd5b600073ffffffffffffffffffffffffffffffffffffffff82169050919050565b6000610cb582610c8a565b9050919050565b610cc581610caa565b8114610cd057600080fd5b50565b600081359050610ce281610cbc565b92915050565b600060208284031215610cfe57610cfd610c85565b5b6000610d0c84828501610cd3565b91505092915050565b6000819050919050565b610d2881610d15565b82525050565b6000602082019050610d436000830184610d1f565b92915050565b6000610d5482610c8a565b9050919050565b610d6481610d49565b8114610d6f57600080fd5b50565b600081359050610d8181610d5b565b92915050565b600060208284031215610d9d57610d9c610c85565b5b6000610dab84828501610d72565b91505092915050565b610dbd81610caa565b82525050565b6000602082019050610dd86000830184610db4565b92915050565b60008115159050919050565b610df381610dde565b82525050565b6000602082019050610e0e6000830184610dea565b92915050565b7f4e487b7100000000000000000000000000000000000000000000000000000000600052602260045260246000fd5b60006002820490506001821680610e5b57607f821691505b602082108103610e6e57610e6d610e14565b5b50919050565b7f4f6e6c7920636f6e7472616374206f776e65722063616e2061646420746f207760008201527f686974656c697374000000000000000000000000000000000000000000000000602082015250565b6000610ed0602883610bde565b9150610edb82610e74565b604082019050919050565b60006020820190508181036000830152610eff81610ec3565b9050919050565b7f4e487b7100000000000000000000000000000000000000000000000000000000600052601260045260246000fd5b7f4e487b7100000000000000000000000000000000000000000000000000000000600052601160045260246000fd5b6000610f6f82610d15565b9150610f7a83610d15565b925082610f8a57610f89610f06565b5b828204905092915050565b6000610fa082610d15565b9150610fab83610d15565b9250828202610fb981610d15565b91508282048414831517610fd057610fcf610f35565b5b5092915050565b7f596f752063616e27742077697468647261772079657400000000000000000000600082015250565b600061100d601683610bde565b915061101882610fd7565b602082019050919050565b6000602082019050818103600083015261103c81611000565b9050919050565b7f596f75206172656e277420746865206f776e6572000000000000000000000000600082015250565b6000611079601483610bde565b915061108482611043565b602082019050919050565b600060208201905081810360008301526110a88161106c565b9050919050565b60006040820190506110c46000830185610d1f565b6110d16020830184610d1f565b9392505050565b7f43726f776473616c65206e6f7420737461727465642079657420000000000000600082015250565b600061110e601a83610bde565b9150611119826110d8565b602082019050919050565b6000602082019050818103600083015261113d81611101565b9050919050565b7f43726f776473616c652068617320656e64656400000000000000000000000000600082015250565b600061117a601383610bde565b915061118582611144565b602082019050919050565b600060208201905081810360008301526111a98161116d565b9050919050565b7f4f6e6c792077686974656c69737465642075736572732063616e20707572636860008201527f61736520746f6b656e7300000000000000000000000000000000000000000000602082015250565b600061120c602a83610bde565b9150611217826111b0565b604082019050919050565b6000602082019050818103600083015261123b816111ff565b9050919050565b600061124d82610d15565b915061125883610d15565b92508282019050808211156112705761126f610f35565b5b92915050565b7f496e76616c696420616464726573730000000000000000000000000000000000600082015250565b60006112ac600f83610bde565b91506112b782611276565b602082019050919050565b600060208201905081810360008301526112db8161129f565b905091905056fea26469706673582212203be672f9247874af62f4909b84e94fc4b8295ae23388ad84f223b979a5c0aa3064736f6c63430008120033",
  "linkReferences": {},
  "deployedLinkReferences": {}
}