{
  "_format": "hh-sol-artifact-1",
  "contractName": "MyFirstLaunchPad",
  "sourceName": "contracts/MyFirstLaunchPad.sol",
  "abi": [
    {
      "inputs": [],
      "stateMutability": "nonpayable",
      "type": "constructor"
    },
    {
      "inputs": [
        {
          "internalType": "address payable",
          "name": "user",
          "type": "address"
        }
      ],
      "name": "Claim",
      "outputs": [],
      "stateMutability": "nonpayable",
      "type": "function"
    },
    {
      "inputs": [
        {
          "internalType": "address",
          "name": "user",
          "type": "address"
        }
      ],
      "name": "addWhitelist",
      "outputs": [],
      "stateMutability": "nonpayable",
      "type": "function"
    },
    {
      "inputs": [],
      "name": "buyTokens",
      "outputs": [],
      "stateMutability": "payable",
      "type": "function"
    },
    {
      "inputs": [
        {
          "internalType": "address",
          "name": "",
          "type": "address"
        }
      ],
      "name": "customersQuota",
      "outputs": [
        {
          "internalType": "uint256",
          "name": "",
          "type": "uint256"
        }
      ],
      "stateMutability": "view",
      "type": "function"
    },
    {
      "inputs": [],
      "name": "deadline",
      "outputs": [
        {
          "internalType": "uint256",
          "name": "",
          "type": "uint256"
        }
      ],
      "stateMutability": "view",
      "type": "function"
    },
    {
      "inputs": [],
      "name": "startline",
      "outputs": [
        {
          "internalType": "uint256",
          "name": "",
          "type": "uint256"
        }
      ],
      "stateMutability": "view",
      "type": "function"
    },
    {
      "inputs": [],
      "name": "tokensTotal",
      "outputs": [
        {
          "internalType": "uint256",
          "name": "",
          "type": "uint256"
        }
      ],
      "stateMutability": "view",
      "type": "function"
    },
    {
      "inputs": [],
      "name": "totalStock",
      "outputs": [
        {
          "internalType": "uint256",
          "name": "",
          "type": "uint256"
        }
      ],
      "stateMutability": "view",
      "type": "function"
    },
    {
      "inputs": [
        {
          "internalType": "address",
          "name": "",
          "type": "address"
        }
      ],
      "name": "whitelist",
      "outputs": [
        {
          "internalType": "bool",
          "name": "",
          "type": "bool"
        }
      ],
      "stateMutability": "view",
      "type": "function"
    }
  ],
  "bytecode": "0x60806040526364075f80600155636db9fd8060025534801561002057600080fd5b5033600660006101000a81548173ffffffffffffffffffffffffffffffffffffffff021916908373ffffffffffffffffffffffffffffffffffffffff1602179055506001600080735b38da6a701c568545dcfcb03fcb875f56beddc473ffffffffffffffffffffffffffffffffffffffff1673ffffffffffffffffffffffffffffffffffffffff16815260200190815260200160002060006101000a81548160ff021916908315150217905550600160008073ab8483f64d9c6d1ecf9b849ae677dd3315835cb273ffffffffffffffffffffffffffffffffffffffff1673ffffffffffffffffffffffffffffffffffffffff16815260200190815260200160002060006101000a81548160ff021916908315150217905550600160008073ca35b7d915458ef540ade6068dfe2f44e8fa733c73ffffffffffffffffffffffffffffffffffffffff1673ffffffffffffffffffffffffffffffffffffffff16815260200190815260200160002060006101000a81548160ff021916908315150217905550612710600381905550610bf1806101bb6000396000f3fe6080604052600436106100865760003560e01c80637ba82f18116100595780637ba82f18146101355780639b19251a14610172578063b1a951da146101af578063d0febe4c146101da578063f80f5dd5146101e457610086565b80630c7ef9321461008b5780631ffe4cca146100b457806329dcb0cf146100df578063394610cf1461010a575b600080fd5b34801561009757600080fd5b506100b260048036038101906100ad919061073b565b61020d565b005b3480156100c057600080fd5b506100c9610341565b6040516100d69190610781565b60405180910390f35b3480156100eb57600080fd5b506100f4610347565b6040516101019190610781565b60405180910390f35b34801561011657600080fd5b5061011f61034d565b60405161012c9190610781565b60405180910390f35b34801561014157600080fd5b5061015c600480360381019061015791906107da565b610353565b6040516101699190610781565b60405180910390f35b34801561017e57600080fd5b50610199600480360381019061019491906107da565b61036b565b6040516101a69190610822565b60405180910390f35b3480156101bb57600080fd5b506101c461038b565b6040516101d19190610781565b60405180910390f35b6101e2610391565b005b3480156101f057600080fd5b5061020b600480360381019061020691906107da565b610580565b005b6000803373ffffffffffffffffffffffffffffffffffffffff1673ffffffffffffffffffffffffffffffffffffffff16815260200190815260200160002060009054906101000a900460ff16610298576040517f08c379a000000000000000000000000000000000000000000000000000000000815260040161028f906108c0565b60405180910390fd5b6000612710600554600460008573ffffffffffffffffffffffffffffffffffffffff1673ffffffffffffffffffffffffffffffffffffffff168152602001908152602001600020546102ea919061093e565b6102f4919061096f565b90508173ffffffffffffffffffffffffffffffffffffffff166108fc829081150290604051600060405180830381858888f1935050505015801561033c573d6000803e3d6000fd5b505050565b60015481565b60025481565b60035481565b60046020528060005260406000206000915090505481565b60006020528060005260406000206000915054906101000a900460ff1681565b60055481565b6001544211156103d6576040517f08c379a00000000000000000000000000000000000000000000000000000000081526004016103cd906109fd565b60405180910390fd5b60025442111561041b576040517f08c379a000000000000000000000000000000000000000000000000000000000815260040161041290610a69565b60405180910390fd5b6000803373ffffffffffffffffffffffffffffffffffffffff1673ffffffffffffffffffffffffffffffffffffffff16815260200190815260200160002060009054906101000a900460ff166104a6576040517f08c379a000000000000000000000000000000000000000000000000000000000815260040161049d90610afb565b60405180910390fd5b34600560008282546104b89190610b1b565b9250508190555034600460003373ffffffffffffffffffffffffffffffffffffffff1673ffffffffffffffffffffffffffffffffffffffff168152602001908152602001600020600082825461050e9190610b1b565b92505081905550600660009054906101000a900473ffffffffffffffffffffffffffffffffffffffff1673ffffffffffffffffffffffffffffffffffffffff166108fc349081150290604051600060405180830381858888f1935050505015801561057d573d6000803e3d6000fd5b50565b600660009054906101000a900473ffffffffffffffffffffffffffffffffffffffff1673ffffffffffffffffffffffffffffffffffffffff163373ffffffffffffffffffffffffffffffffffffffff1614610610576040517f08c379a0000000000000000000000000000000000000000000000000000000008152600401610607906108c0565b60405180910390fd5b8073ffffffffffffffffffffffffffffffffffffffff168173ffffffffffffffffffffffffffffffffffffffff161461067e576040517f08c379a000000000000000000000000000000000000000000000000000000000815260040161067590610b9b565b60405180910390fd5b60016000808373ffffffffffffffffffffffffffffffffffffffff1673ffffffffffffffffffffffffffffffffffffffff16815260200190815260200160002060006101000a81548160ff02191690831515021790555050565b600080fd5b600073ffffffffffffffffffffffffffffffffffffffff82169050919050565b6000610708826106dd565b9050919050565b610718816106fd565b811461072357600080fd5b50565b6000813590506107358161070f565b92915050565b600060208284031215610751576107506106d8565b5b600061075f84828501610726565b91505092915050565b6000819050919050565b61077b81610768565b82525050565b60006020820190506107966000830184610772565b92915050565b60006107a7826106dd565b9050919050565b6107b78161079c565b81146107c257600080fd5b50565b6000813590506107d4816107ae565b92915050565b6000602082840312156107f0576107ef6106d8565b5b60006107fe848285016107c5565b91505092915050565b60008115159050919050565b61081c81610807565b82525050565b60006020820190506108376000830184610813565b92915050565b600082825260208201905092915050565b7f4f6e6c7920636f6e7472616374206f776e65722063616e2061646420746f207760008201527f686974656c697374000000000000000000000000000000000000000000000000602082015250565b60006108aa60288361083d565b91506108b58261084e565b604082019050919050565b600060208201905081810360008301526108d98161089d565b9050919050565b7f4e487b7100000000000000000000000000000000000000000000000000000000600052601260045260246000fd5b7f4e487b7100000000000000000000000000000000000000000000000000000000600052601160045260246000fd5b600061094982610768565b915061095483610768565b925082610964576109636108e0565b5b828204905092915050565b600061097a82610768565b915061098583610768565b925082820261099381610768565b915082820484148315176109aa576109a961090f565b5b5092915050565b7f43726f776473616c65206e6f7420737461727465642079657420000000000000600082015250565b60006109e7601a8361083d565b91506109f2826109b1565b602082019050919050565b60006020820190508181036000830152610a16816109da565b9050919050565b7f43726f776473616c652068617320656e64656400000000000000000000000000600082015250565b6000610a5360138361083d565b9150610a5e82610a1d565b602082019050919050565b60006020820190508181036000830152610a8281610a46565b9050919050565b7f4f6e6c792077686974656c69737465642075736572732063616e20707572636860008201527f61736520746f6b656e7300000000000000000000000000000000000000000000602082015250565b6000610ae5602a8361083d565b9150610af082610a89565b604082019050919050565b60006020820190508181036000830152610b1481610ad8565b9050919050565b6000610b2682610768565b9150610b3183610768565b9250828201905080821115610b4957610b4861090f565b5b92915050565b7f496e76616c696420616464726573730000000000000000000000000000000000600082015250565b6000610b85600f8361083d565b9150610b9082610b4f565b602082019050919050565b60006020820190508181036000830152610bb481610b78565b905091905056fea2646970667358221220c71aa9fdc171cb112bb384b4ed73013ef23e71d6cf6646abe0829b7a92130e2164736f6c63430008120033",
  "linkReferences": {},
  "deployedLinkReferences": {}
}